{
    "contractName": "Dex",
    "abi": [
        {
            "inputs": [
                {
                    "internalType": "bytes32",
                    "name": "ticker",
                    "type": "bytes32"
                },
                {
                    "internalType": "address",
                    "name": "tokenAddress",
                    "type": "address"
                }
            ],
            "name": "addToken",
            "outputs": [],
            "stateMutability": "nonpayable",
            "type": "function"
        },
        {
            "inputs": [
                {
                    "internalType": "address",
                    "name": "",
                    "type": "address"
                },
                {
                    "internalType": "bytes32",
                    "name": "",
                    "type": "bytes32"
                }
            ],
            "name": "balances",
            "outputs": [
                {
                    "internalType": "uint256",
                    "name": "",
                    "type": "uint256"
                }
            ],
            "stateMutability": "view",
            "type": "function"
        },
        {
            "inputs": [
                {
                    "internalType": "enum Dex.Side",
                    "name": "side",
                    "type": "uint8"
                },
                {
                    "internalType": "bytes32",
                    "name": "ticker",
                    "type": "bytes32"
                },
                {
                    "internalType": "uint256",
                    "name": "amount",
                    "type": "uint256"
                },
                {
                    "internalType": "uint256",
                    "name": "price",
                    "type": "uint256"
                }
            ],
            "name": "createLimitOrder",
            "outputs": [],
            "stateMutability": "nonpayable",
            "type": "function"
        },
        {
            "inputs": [
                {
                    "internalType": "enum Dex.Side",
                    "name": "side",
                    "type": "uint8"
                },
                {
                    "internalType": "bytes32",
                    "name": "ticker",
                    "type": "bytes32"
                },
                {
                    "internalType": "uint256",
                    "name": "amount",
                    "type": "uint256"
                }
            ],
            "name": "createMarketOrder",
            "outputs": [],
            "stateMutability": "nonpayable",
            "type": "function"
        },
        {
            "inputs": [
                {
                    "internalType": "uint256",
                    "name": "amount",
                    "type": "uint256"
                },
                {
                    "internalType": "bytes32",
                    "name": "ticker",
                    "type": "bytes32"
                }
            ],
            "name": "deposit",
            "outputs": [],
            "stateMutability": "nonpayable",
            "type": "function"
        },
        {
            "inputs": [],
            "name": "depositETH",
            "outputs": [],
            "stateMutability": "payable",
            "type": "function"
        },
        {
            "inputs": [
                {
                    "internalType": "bytes32",
                    "name": "ticker",
                    "type": "bytes32"
                },
                {
                    "internalType": "enum Dex.Side",
                    "name": "side",
                    "type": "uint8"
                }
            ],
            "name": "getOrderBook",
            "outputs": [
                {
                    "components": [
                        {
                            "internalType": "uint256",
                            "name": "id",
                            "type": "uint256"
                        },
                        {
                            "internalType": "address",
                            "name": "trader",
                            "type": "address"
                        },
                        {
                            "internalType": "enum Dex.Side",
                            "name": "side",
                            "type": "uint8"
                        },
                        {
                            "internalType": "bytes32",
                            "name": "ticker",
                            "type": "bytes32"
                        },
                        {
                            "internalType": "uint256",
                            "name": "amount",
                            "type": "uint256"
                        },
                        {
                            "internalType": "uint256",
                            "name": "price",
                            "type": "uint256"
                        },
                        {
                            "internalType": "uint256",
                            "name": "filled",
                            "type": "uint256"
                        }
                    ],
                    "internalType": "struct Dex.Order[]",
                    "name": "",
                    "type": "tuple[]"
                }
            ],
            "stateMutability": "view",
            "type": "function"
        },
        {
            "inputs": [],
            "name": "nextOrderId",
            "outputs": [
                {
                    "internalType": "uint256",
                    "name": "",
                    "type": "uint256"
                }
            ],
            "stateMutability": "view",
            "type": "function"
        },
        {
            "inputs": [
                {
                    "internalType": "bytes32",
                    "name": "",
                    "type": "bytes32"
                },
                {
                    "internalType": "uint256",
                    "name": "",
                    "type": "uint256"
                },
                {
                    "internalType": "uint256",
                    "name": "",
                    "type": "uint256"
                }
            ],
            "name": "orderBook",
            "outputs": [
                {
                    "internalType": "uint256",
                    "name": "id",
                    "type": "uint256"
                },
                {
                    "internalType": "address",
                    "name": "trader",
                    "type": "address"
                },
                {
                    "internalType": "enum Dex.Side",
                    "name": "side",
                    "type": "uint8"
                },
                {
                    "internalType": "bytes32",
                    "name": "ticker",
                    "type": "bytes32"
                },
                {
                    "internalType": "uint256",
                    "name": "amount",
                    "type": "uint256"
                },
                {
                    "internalType": "uint256",
                    "name": "price",
                    "type": "uint256"
                },
                {
                    "internalType": "uint256",
                    "name": "filled",
                    "type": "uint256"
                }
            ],
            "stateMutability": "view",
            "type": "function"
        },
        {
            "inputs": [
                {
                    "internalType": "uint256",
                    "name": "",
                    "type": "uint256"
                }
            ],
            "name": "tokenList",
            "outputs": [
                {
                    "internalType": "bytes32",
                    "name": "",
                    "type": "bytes32"
                }
            ],
            "stateMutability": "view",
            "type": "function"
        },
        {
            "inputs": [
                {
                    "internalType": "bytes32",
                    "name": "",
                    "type": "bytes32"
                }
            ],
            "name": "tokenMapping",
            "outputs": [
                {
                    "internalType": "bytes32",
                    "name": "ticker",
                    "type": "bytes32"
                },
                {
                    "internalType": "address",
                    "name": "tokenAddress",
                    "type": "address"
                }
            ],
            "stateMutability": "view",
            "type": "function"
        },
        {
            "inputs": [
                {
                    "internalType": "uint256",
                    "name": "amount",
                    "type": "uint256"
                },
                {
                    "internalType": "bytes32",
                    "name": "ticker",
                    "type": "bytes32"
                }
            ],
            "name": "withdraw",
            "outputs": [],
            "stateMutability": "nonpayable",
            "type": "function"
        }
    ],
    "bytecode": "6080604052600060035534801561001557600080fd5b50611ac6806100256000396000f3fe6080604052600436106100a75760003560e01c806399ec2f1c1161006457806399ec2f1c146102535780639ead722214610273578063a8d2021a14610293578063ba58ea68146102b3578063c9630cb0146102e0578063f6326fb31461030057600080fd5b80630bb431b6146100ac5780631f14df69146100e85780632a58b3301461012e578063667cb4ba146101445780636f3b62f91461019e5780639776aacf146101c0575b600080fd5b3480156100b857600080fd5b506100cc6100c7366004611801565b610308565b6040516100df9796959493929190611971565b60405180910390f35b3480156100f457600080fd5b5061012061010336600461174d565b600260209081526000928352604080842090915290825290205481565b6040519081526020016100df565b34801561013a57600080fd5b5061012060035481565b34801561015057600080fd5b5061018161015f366004611799565b600060208190529081526040902080546001909101546001600160a01b031682565b604080519283526001600160a01b039091166020830152016100df565b3480156101aa57600080fd5b506101be6101b9366004611860565b61037e565b005b3480156101cc57600080fd5b506101be6101db3660046117b2565b6040805180820182528381526001600160a01b0392831660208083019182526000868152908190529283209151825551600191820180546001600160a01b0319169190941617909255815480830183559190527fb10e2d527612073b26eecdfd717e6a320cf44b4afac2b0732d9fcbe2b7fa0cf60155565b34801561025f57600080fd5b506101be61026e36600461182d565b610b1f565b34801561027f57600080fd5b5061012061028e366004611799565b61131e565b34801561029f57600080fd5b506101be6102ae366004611899565b61133f565b3480156102bf57600080fd5b506102d36102ce3660046117de565b61149a565b6040516100df91906118dd565b3480156102ec57600080fd5b506101be6102fb366004611899565b6115a5565b6101be6116a9565b6004602052826000526040600020602052816000526040600020818154811061033057600080fd5b60009182526020909120600690910201805460018201546002830154600384015460048501546005909501549397506001600160a01b0383169650600160a01b90920460ff16945092909187565b600084600181111561039257610392611a4e565b14156103d3576103a282826116f7565b3360009081526002602090815260408083206208aa8960eb1b845290915290205410156103ce57600080fd5b610414565b60018460018111156103e7576103e7611a4e565b14156104145733600090815260026020908152604080832086845290915290205482111561041457600080fd5b60008381526004602052604081208186600181111561043557610435611a4e565b81526020019081526020016000209050806040518060e001604052806003548152602001336001600160a01b0316815260200187600181111561047a5761047a611a4e565b81526020808201889052604080830188905260608301879052600060809093018390528454600180820187559584529282902084516006909402019283559083015182850180546001600160a01b031981166001600160a01b03909316928317825592850151949593949390926001600160a81b03191690911790600160a01b90849081111561050c5761050c611a4e565b0217905550606082015160028201556080820151600382015560a0820151600482015560c090910151600590910155805460009061054b576000610559565b8154610559906001906119ef565b9050600086600181111561056f5761056f611a4e565b1415610831575b801561082c5781818154811061058e5761058e611a7a565b906000526020600020906006020160040154826001836105ae91906119ef565b815481106105be576105be611a7a565b90600052602060002090600602016004015411156105db57610b02565b6000826105e96001846119ef565b815481106105f9576105f9611a7a565b60009182526020918290206040805160e081018252600693909302909101805483526001808201546001600160a01b038116958501959095529293909291840191600160a01b90910460ff169081111561065557610655611a4e565b600181111561066657610666611a4e565b815260200160028201548152602001600382015481526020016004820154815260200160058201548152505090508282815481106106a6576106a6611a7a565b9060005260206000209060060201836001846106c291906119ef565b815481106106d2576106d2611a7a565b6000918252602090912082546006909202019081556001808301805482840180546001600160a01b031981166001600160a01b039093169283178255925460ff600160a01b91829004169491936001600160a81b0319169092179190849081111561073f5761073f611a4e565b0217905550600282015481600201556003820154816003015560048201548160040155600582015481600501559050508083838154811061078257610782611a7a565b6000918252602091829020835160069092020190815590820151600180830180546001600160a01b039093166001600160a01b031984168117825560408601519391926001600160a81b03199092161790600160a01b9084908111156107ea576107ea611a4e565b0217905550606082015160028201556080820151600382015560a0820151600482015560c0909101516005909101558161082381611a06565b92505050610576565b610b02565b600186600181111561084557610845611a4e565b1415610b02575b8015610b025781818154811061086457610864611a7a565b9060005260206000209060060201600401548260018361088491906119ef565b8154811061089457610894611a7a565b90600052602060002090600602016004015410156108b157610b02565b6000826108bf6001846119ef565b815481106108cf576108cf611a7a565b60009182526020918290206040805160e081018252600693909302909101805483526001808201546001600160a01b038116958501959095529293909291840191600160a01b90910460ff169081111561092b5761092b611a4e565b600181111561093c5761093c611a4e565b8152602001600282015481526020016003820154815260200160048201548152602001600582015481525050905082828154811061097c5761097c611a7a565b90600052602060002090600602018360018461099891906119ef565b815481106109a8576109a8611a7a565b6000918252602090912082546006909202019081556001808301805482840180546001600160a01b031981166001600160a01b039093169283178255925460ff600160a01b91829004169491936001600160a81b03191690921791908490811115610a1557610a15611a4e565b02179055506002820154816002015560038201548160030155600482015481600401556005820154816005015590505080838381548110610a5857610a58611a7a565b6000918252602091829020835160069092020190815590820151600180830180546001600160a01b039093166001600160a01b031984168117825560408601519391926001600160a81b03199092161790600160a01b908490811115610ac057610ac0611a4e565b0217905550606082015160028201556080820151600382015560a0820151600482015560c09091015160059091015581610af981611a06565b9250505061084c565b60038054906000610b1283611a1d565b9190505550505050505050565b6001836001811115610b3357610b33611a4e565b1415610b9f57336000908152600260209081526040808320858452909152902054811115610b9f5760405162461bcd60e51b8152602060048201526014602482015273496e73756666696369656e742062616c616e636560601b60448201526064015b60405180910390fd5b600080846001811115610bb457610bb4611a4e565b1415610bc257506001610bc6565b5060005b6000838152600460209081526040808320848452909152812090805b825481108015610bf157508482105b1561115e576000610c02868461170a565b90506000610c5f858481548110610c1b57610c1b611a7a565b906000526020600020906006020160050154868581548110610c3f57610c3f611a7a565b90600052602060002090600602016003015461170a90919063ffffffff16565b9050600082821115610c72575081610c7d565b82821015610c7d5750805b610c878582611716565b9450610cbf81878681548110610c9f57610c9f611a7a565b90600052602060002090600602016005015461171690919063ffffffff16565b868581548110610cd157610cd1611a7a565b9060005260206000209060060201600501819055506000610d1e878681548110610cfd57610cfd611a7a565b906000526020600020906006020160040154836116f790919063ffffffff16565b905060008b6001811115610d3457610d34611a4e565b1415610f4a573360009081526002602090815260408083206208aa8960eb1b8452909152902054811115610d6757600080fd5b3360009081526002602090815260408083208d8452909152902054610d8c9083611716565b3360009081526002602090815260408083208e8452909152808220929092556208aa8960eb1b81522054610dc0908261170a565b3360009081526002602081815260408084206208aa8960eb1b85529091528220929092558854610e3f92859290918b908a908110610e0057610e00611a7a565b60009182526020808320600160069093020191909101546001600160a01b0316835282810193909352604091820181208f82529092529020549061170a565b60026000898881548110610e5557610e55611a7a565b60009182526020808320600160069093020191909101546001600160a01b0316835282810193909352604091820181208e82529092528120919091558754610ef4918391600291908b908a908110610eaf57610eaf611a7a565b60009182526020808320600160069093020191909101546001600160a01b0316835282810193909352604091820181206208aa8960eb1b825290925290205490611716565b60026000898881548110610f0a57610f0a611a7a565b60009182526020808320600160069093020191909101546001600160a01b0316835282810193909352604091820181206208aa8960eb1b82529092529020555b60018b6001811115610f5e57610f5e611a4e565b1415611147573360009081526002602090815260408083206208aa8960eb1b8452909152902054610f8f908361170a565b3360009081526002602090815260408083206208aa8960eb1b8452909152808220929092558b81522054610fc39082611716565b3360009081526002602081815260408084208f8552909152822092909255885461104292849290918b908a908110610ffd57610ffd611a7a565b60009182526020808320600160069093020191909101546001600160a01b0316835282810193909352604091820181206208aa8960eb1b82529092529020549061170a565b6002600089888154811061105857611058611a7a565b60009182526020808320600160069093020191909101546001600160a01b0316835282810193909352604091820181206208aa8960eb1b825290925281209190915587546110f7918491600291908b908a9081106110b8576110b8611a7a565b60009182526020808320600160069093020191909101546001600160a01b0316835282810193909352604091820181208f825290925290205490611716565b6002600089888154811061110d5761110d611a7a565b60009182526020808320600160069093020191909101546001600160a01b0316835282810193909352604091820181208e82529092529020555b50505050808061115690611a1d565b915050610be2565b505b8154158015906111b757508160008154811061117e5761117e611a7a565b906000526020600020906006020160050154826000815481106111a3576111a3611a7a565b906000526020600020906006020160030154145b156113165760005b82546111cd906001906119ef565b8110156112bb57826111e08260016119b8565b815481106111f0576111f0611a7a565b906000526020600020906006020183828154811061121057611210611a7a565b6000918252602090912082546006909202019081556001808301805482840180546001600160a01b031981166001600160a01b039093169283178255925460ff600160a01b91829004169491936001600160a81b0319169092179190849081111561127d5761127d611a4e565b0217905550600282810154908201556003808301549082015560048083015490820155600591820154910155806112b381611a1d565b9150506111bf565b50818054806112cc576112cc611a64565b6000828152602081206006600019909301928302018181556001810180546001600160a81b0319169055600281018290556003810182905560048101829055600501559055611160565b505050505050565b6001818154811061132e57600080fd5b600091825260209091200154905081565b6000818152602081905260409020600101546001600160a01b031661136357600080fd5b3360009081526002602090815260408083208484529091529020548211156113c65760405162461bcd60e51b815260206004820152601660248201527510985b185b98d9481b9bdd081cdd59999a58da595b9d60521b6044820152606401610b96565b3360009081526002602090815260408083208484529091529020546113eb908361170a565b33600081815260026020908152604080832086845282528083209490945581905282902060010154915163a9059cbb60e01b81526004810191909152602481018490526001600160a01b039091169063a9059cbb90604401602060405180830381600087803b15801561145d57600080fd5b505af1158015611471573d6000803e3d6000fd5b505050506040513d601f19601f820116820180604052508101906114959190611777565b505050565b60008281526004602052604081206060918360018111156114bd576114bd611a4e565b8152602001908152602001600020805480602002602001604051908101604052809291908181526020016000905b828210156115995760008481526020908190206040805160e08101825260068602909201805483526001808201546001600160a01b038116958501959095529293909291840191600160a01b90910460ff169081111561154d5761154d611a4e565b600181111561155e5761155e611a4e565b8152602001600282015481526020016003820154815260200160048201548152602001600582015481525050815260200190600101906114eb565b50505050905092915050565b6000818152602081905260409020600101546001600160a01b03166115c957600080fd5b600081815260208190526040908190206001015490516323b872dd60e01b8152336004820152306024820152604481018490526001600160a01b03909116906323b872dd90606401602060405180830381600087803b15801561162b57600080fd5b505af115801561163f573d6000803e3d6000fd5b505050506040513d601f19601f820116820180604052508101906116639190611777565b503360009081526002602090815260408083208484529091529020546116899083611716565b336000908152600260209081526040808320948352939052919091205550565b3360009081526002602090815260408083206208aa8960eb1b84529091529020546116d49034611716565b3360009081526002602090815260408083206208aa8960eb1b8452909152902055565b600061170382846119d0565b9392505050565b600061170382846119ef565b600061170382846119b8565b80356001600160a01b038116811461173957600080fd5b919050565b80356002811061173957600080fd5b6000806040838503121561176057600080fd5b61176983611722565b946020939093013593505050565b60006020828403121561178957600080fd5b8151801515811461170357600080fd5b6000602082840312156117ab57600080fd5b5035919050565b600080604083850312156117c557600080fd5b823591506117d560208401611722565b90509250929050565b600080604083850312156117f157600080fd5b823591506117d56020840161173e565b60008060006060848603121561181657600080fd5b505081359360208301359350604090920135919050565b60008060006060848603121561184257600080fd5b61184b8461173e565b95602085013595506040909401359392505050565b6000806000806080858703121561187657600080fd5b61187f8561173e565b966020860135965060408601359560600135945092505050565b600080604083850312156118ac57600080fd5b50508035926020909101359150565b600281106118d957634e487b7160e01b600052602160045260246000fd5b9052565b602080825282518282018190526000919060409081850190868401855b8281101561196457815180518552868101516001600160a01b03168786015285810151611929878701826118bb565b50606081810151908601526080808201519086015260a0808201519086015260c0908101519085015260e090930192908501906001016118fa565b5091979650505050505050565b8781526001600160a01b038716602082015260e0810161199460408301886118bb565b8560608301528460808301528360a08301528260c083015298975050505050505050565b600082198211156119cb576119cb611a38565b500190565b60008160001904831182151516156119ea576119ea611a38565b500290565b600082821015611a0157611a01611a38565b500390565b600081611a1557611a15611a38565b506000190190565b6000600019821415611a3157611a31611a38565b5060010190565b634e487b7160e01b600052601160045260246000fd5b634e487b7160e01b600052602160045260246000fd5b634e487b7160e01b600052603160045260246000fd5b634e487b7160e01b600052603260045260246000fdfea2646970667358221220e84c65f43084c85f466ff50c0a6efdb17896d793823d539f0eb6169002866a1b64736f6c63430008070033",
    "sourcePath": "c:/Users/Riki/Desktop/Solidity/DEX/contracts/dex.sol",
    "compiler": {
        "name": "solc",
        "version": "0.8.7+commit.e28d00a7"
    },
    "functionHashes": {
        "addToken(bytes32,address)": "9776aacf",
        "balances(address,bytes32)": "1f14df69",
        "createLimitOrder(uint8,bytes32,uint256,uint256)": "6f3b62f9",
        "createMarketOrder(uint8,bytes32,uint256)": "99ec2f1c",
        "deposit(uint256,bytes32)": "c9630cb0",
        "depositETH()": "f6326fb3",
        "getOrderBook(bytes32,uint8)": "ba58ea68",
        "nextOrderId()": "2a58b330",
        "orderBook(bytes32,uint256,uint256)": "0bb431b6",
        "tokenList(uint256)": "9ead7222",
        "tokenMapping(bytes32)": "667cb4ba",
        "withdraw(uint256,bytes32)": "a8d2021a"
    },
    "gasEstimates": {
        "creation": {
            "codeDepositCost": "1370800",
            "executionCost": "6437",
            "totalCost": "1377237"
        },
        "external": {
            "addToken(bytes32,address)": "93285",
            "balances(address,bytes32)": "2635",
            "createLimitOrder(uint8,bytes32,uint256,uint256)": "infinite",
            "createMarketOrder(uint8,bytes32,uint256)": "infinite",
            "deposit(uint256,bytes32)": "infinite",
            "depositETH()": "24842",
            "getOrderBook(bytes32,uint8)": "infinite",
            "nextOrderId()": "2340",
            "orderBook(bytes32,uint256,uint256)": "15619",
            "tokenList(uint256)": "4597",
            "tokenMapping(bytes32)": "4680",
            "withdraw(uint256,bytes32)": "infinite"
        }
    }
}