{
    "contractName": "Wallet",
    "abi": [
        {
            "inputs": [
                {
                    "internalType": "bytes32",
                    "name": "ticker",
                    "type": "bytes32"
                },
                {
                    "internalType": "address",
                    "name": "tokenAddress",
                    "type": "address"
                }
            ],
            "name": "addToken",
            "outputs": [],
            "stateMutability": "nonpayable",
            "type": "function"
        },
        {
            "inputs": [
                {
                    "internalType": "address",
                    "name": "",
                    "type": "address"
                },
                {
                    "internalType": "bytes32",
                    "name": "",
                    "type": "bytes32"
                }
            ],
            "name": "balances",
            "outputs": [
                {
                    "internalType": "uint256",
                    "name": "",
                    "type": "uint256"
                }
            ],
            "stateMutability": "view",
            "type": "function"
        },
        {
            "inputs": [
                {
                    "internalType": "uint256",
                    "name": "amount",
                    "type": "uint256"
                },
                {
                    "internalType": "bytes32",
                    "name": "ticker",
                    "type": "bytes32"
                }
            ],
            "name": "deposit",
            "outputs": [],
            "stateMutability": "nonpayable",
            "type": "function"
        },
        {
            "inputs": [],
            "name": "depositETH",
            "outputs": [],
            "stateMutability": "payable",
            "type": "function"
        },
        {
            "inputs": [
                {
                    "internalType": "uint256",
                    "name": "",
                    "type": "uint256"
                }
            ],
            "name": "tokenList",
            "outputs": [
                {
                    "internalType": "bytes32",
                    "name": "",
                    "type": "bytes32"
                }
            ],
            "stateMutability": "view",
            "type": "function"
        },
        {
            "inputs": [
                {
                    "internalType": "bytes32",
                    "name": "",
                    "type": "bytes32"
                }
            ],
            "name": "tokenMapping",
            "outputs": [
                {
                    "internalType": "bytes32",
                    "name": "ticker",
                    "type": "bytes32"
                },
                {
                    "internalType": "address",
                    "name": "tokenAddress",
                    "type": "address"
                }
            ],
            "stateMutability": "view",
            "type": "function"
        },
        {
            "inputs": [
                {
                    "internalType": "uint256",
                    "name": "amount",
                    "type": "uint256"
                },
                {
                    "internalType": "bytes32",
                    "name": "ticker",
                    "type": "bytes32"
                }
            ],
            "name": "withdraw",
            "outputs": [],
            "stateMutability": "nonpayable",
            "type": "function"
        }
    ],
    "bytecode": "608060405234801561001057600080fd5b50610652806100206000396000f3fe6080604052600436106100705760003560e01c80639ead72221161004e5780639ead7222146101af578063a8d2021a146101cf578063c9630cb0146101ef578063f6326fb31461020f57600080fd5b80631f14df6914610075578063667cb4ba146100c05780639776aacf1461011a575b600080fd5b34801561008157600080fd5b506100ad610090366004610524565b600260209081526000928352604080842090915290825290205481565b6040519081526020015b60405180910390f35b3480156100cc57600080fd5b506100fd6100db366004610570565b600060208190529081526040902080546001909101546001600160a01b031682565b604080519283526001600160a01b039091166020830152016100b7565b34801561012657600080fd5b506101ad610135366004610589565b6040805180820182528381526001600160a01b0392831660208083019182526000868152908190529283209151825551600191820180546001600160a01b0319169190941617909255815480830183559190527fb10e2d527612073b26eecdfd717e6a320cf44b4afac2b0732d9fcbe2b7fa0cf60155565b005b3480156101bb57600080fd5b506100ad6101ca366004610570565b610217565b3480156101db57600080fd5b506101ad6101ea3660046105b5565b610238565b3480156101fb57600080fd5b506101ad61020a3660046105b5565b610397565b6101ad61049b565b6001818154811061022757600080fd5b600091825260209091200154905081565b6000818152602081905260409020600101546001600160a01b031661025c57600080fd5b3360009081526002602090815260408083208484529091529020548211156102c35760405162461bcd60e51b815260206004820152601660248201527510985b185b98d9481b9bdd081cdd59999a58da595b9d60521b604482015260640160405180910390fd5b3360009081526002602090815260408083208484529091529020546102e890836104e9565b33600081815260026020908152604080832086845282528083209490945581905282902060010154915163a9059cbb60e01b81526004810191909152602481018490526001600160a01b039091169063a9059cbb90604401602060405180830381600087803b15801561035a57600080fd5b505af115801561036e573d6000803e3d6000fd5b505050506040513d601f19601f82011682018060405250810190610392919061054e565b505050565b6000818152602081905260409020600101546001600160a01b03166103bb57600080fd5b600081815260208190526040908190206001015490516323b872dd60e01b8152336004820152306024820152604481018490526001600160a01b03909116906323b872dd90606401602060405180830381600087803b15801561041d57600080fd5b505af1158015610431573d6000803e3d6000fd5b505050506040513d601f19601f82011682018060405250810190610455919061054e565b5033600090815260026020908152604080832084845290915290205461047b90836104fc565b336000908152600260209081526040808320948352939052919091205550565b3360009081526002602090815260408083206208aa8960eb1b84529091529020546104c690346104fc565b3360009081526002602090815260408083206208aa8960eb1b8452909152902055565b60006104f582846105ef565b9392505050565b60006104f582846105d7565b80356001600160a01b038116811461051f57600080fd5b919050565b6000806040838503121561053757600080fd5b61054083610508565b946020939093013593505050565b60006020828403121561056057600080fd5b815180151581146104f557600080fd5b60006020828403121561058257600080fd5b5035919050565b6000806040838503121561059c57600080fd5b823591506105ac60208401610508565b90509250929050565b600080604083850312156105c857600080fd5b50508035926020909101359150565b600082198211156105ea576105ea610606565b500190565b60008282101561060157610601610606565b500390565b634e487b7160e01b600052601160045260246000fdfea2646970667358221220e13df50adbbc85892a5aafac81d4e39b89f25829b60e9e8edd713d087b75eee064736f6c63430008070033",
    "sourcePath": "c:/Users/Riki/Desktop/Solidity/DEX/contracts/wallet.sol",
    "compiler": {
        "name": "solc",
        "version": "0.8.7+commit.e28d00a7"
    },
    "functionHashes": {
        "addToken(bytes32,address)": "9776aacf",
        "balances(address,bytes32)": "1f14df69",
        "deposit(uint256,bytes32)": "c9630cb0",
        "depositETH()": "f6326fb3",
        "tokenList(uint256)": "9ead7222",
        "tokenMapping(bytes32)": "667cb4ba",
        "withdraw(uint256,bytes32)": "a8d2021a"
    },
    "gasEstimates": {
        "creation": {
            "codeDepositCost": "323600",
            "executionCost": "362",
            "totalCost": "323962"
        },
        "external": {
            "addToken(bytes32,address)": "93219",
            "balances(address,bytes32)": "2602",
            "deposit(uint256,bytes32)": "infinite",
            "depositETH()": "24798",
            "tokenList(uint256)": "4564",
            "tokenMapping(bytes32)": "4636",
            "withdraw(uint256,bytes32)": "infinite"
        }
    }
}