{
  "contractName": "Dex",
  "abi": [
    {
      "inputs": [
        {
          "internalType": "bytes32",
          "name": "ticker",
          "type": "bytes32"
        },
        {
          "internalType": "address",
          "name": "tokenAddress",
          "type": "address"
        }
      ],
      "name": "addToken",
      "outputs": [],
      "stateMutability": "nonpayable",
      "type": "function"
    },
    {
      "inputs": [
        {
          "internalType": "address",
          "name": "",
          "type": "address"
        },
        {
          "internalType": "bytes32",
          "name": "",
          "type": "bytes32"
        }
      ],
      "name": "balances",
      "outputs": [
        {
          "internalType": "uint256",
          "name": "",
          "type": "uint256"
        }
      ],
      "stateMutability": "view",
      "type": "function",
      "constant": true
    },
    {
      "inputs": [
        {
          "internalType": "uint256",
          "name": "amount",
          "type": "uint256"
        },
        {
          "internalType": "bytes32",
          "name": "ticker",
          "type": "bytes32"
        }
      ],
      "name": "deposit",
      "outputs": [],
      "stateMutability": "nonpayable",
      "type": "function"
    },
    {
      "inputs": [],
      "name": "nextOrderId",
      "outputs": [
        {
          "internalType": "uint256",
          "name": "",
          "type": "uint256"
        }
      ],
      "stateMutability": "view",
      "type": "function",
      "constant": true
    },
    {
      "inputs": [
        {
          "internalType": "bytes32",
          "name": "",
          "type": "bytes32"
        },
        {
          "internalType": "uint256",
          "name": "",
          "type": "uint256"
        },
        {
          "internalType": "uint256",
          "name": "",
          "type": "uint256"
        }
      ],
      "name": "orderBook",
      "outputs": [
        {
          "internalType": "uint256",
          "name": "id",
          "type": "uint256"
        },
        {
          "internalType": "address",
          "name": "trader",
          "type": "address"
        },
        {
          "internalType": "enum Dex.Side",
          "name": "side",
          "type": "uint8"
        },
        {
          "internalType": "bytes32",
          "name": "ticker",
          "type": "bytes32"
        },
        {
          "internalType": "uint256",
          "name": "amount",
          "type": "uint256"
        },
        {
          "internalType": "uint256",
          "name": "price",
          "type": "uint256"
        },
        {
          "internalType": "uint256",
          "name": "filled",
          "type": "uint256"
        }
      ],
      "stateMutability": "view",
      "type": "function",
      "constant": true
    },
    {
      "inputs": [
        {
          "internalType": "uint256",
          "name": "",
          "type": "uint256"
        }
      ],
      "name": "tokenList",
      "outputs": [
        {
          "internalType": "bytes32",
          "name": "",
          "type": "bytes32"
        }
      ],
      "stateMutability": "view",
      "type": "function",
      "constant": true
    },
    {
      "inputs": [
        {
          "internalType": "bytes32",
          "name": "",
          "type": "bytes32"
        }
      ],
      "name": "tokenMapping",
      "outputs": [
        {
          "internalType": "bytes32",
          "name": "ticker",
          "type": "bytes32"
        },
        {
          "internalType": "address",
          "name": "tokenAddress",
          "type": "address"
        }
      ],
      "stateMutability": "view",
      "type": "function",
      "constant": true
    },
    {
      "inputs": [
        {
          "internalType": "uint256",
          "name": "amount",
          "type": "uint256"
        },
        {
          "internalType": "bytes32",
          "name": "ticker",
          "type": "bytes32"
        }
      ],
      "name": "withdraw",
      "outputs": [],
      "stateMutability": "nonpayable",
      "type": "function"
    },
    {
      "inputs": [
        {
          "internalType": "bytes32",
          "name": "ticker",
          "type": "bytes32"
        },
        {
          "internalType": "enum Dex.Side",
          "name": "side",
          "type": "uint8"
        }
      ],
      "name": "getOrderBook",
      "outputs": [
        {
          "components": [
            {
              "internalType": "uint256",
              "name": "id",
              "type": "uint256"
            },
            {
              "internalType": "address",
              "name": "trader",
              "type": "address"
            },
            {
              "internalType": "enum Dex.Side",
              "name": "side",
              "type": "uint8"
            },
            {
              "internalType": "bytes32",
              "name": "ticker",
              "type": "bytes32"
            },
            {
              "internalType": "uint256",
              "name": "amount",
              "type": "uint256"
            },
            {
              "internalType": "uint256",
              "name": "price",
              "type": "uint256"
            },
            {
              "internalType": "uint256",
              "name": "filled",
              "type": "uint256"
            }
          ],
          "internalType": "struct Dex.Order[]",
          "name": "",
          "type": "tuple[]"
        }
      ],
      "stateMutability": "view",
      "type": "function",
      "constant": true
    },
    {
      "inputs": [],
      "name": "depositETH",
      "outputs": [],
      "stateMutability": "payable",
      "type": "function",
      "payable": true
    },
    {
      "inputs": [
        {
          "internalType": "uint256",
          "name": "amount",
          "type": "uint256"
        }
      ],
      "name": "withdrawETH",
      "outputs": [],
      "stateMutability": "payable",
      "type": "function",
      "payable": true
    },
    {
      "inputs": [
        {
          "internalType": "enum Dex.Side",
          "name": "side",
          "type": "uint8"
        },
        {
          "internalType": "bytes32",
          "name": "ticker",
          "type": "bytes32"
        },
        {
          "internalType": "uint256",
          "name": "amount",
          "type": "uint256"
        },
        {
          "internalType": "uint256",
          "name": "price",
          "type": "uint256"
        }
      ],
      "name": "createLimitOrder",
      "outputs": [],
      "stateMutability": "nonpayable",
      "type": "function"
    },
    {
      "inputs": [
        {
          "internalType": "enum Dex.Side",
          "name": "side",
          "type": "uint8"
        },
        {
          "internalType": "bytes32",
          "name": "ticker",
          "type": "bytes32"
        },
        {
          "internalType": "uint256",
          "name": "amount",
          "type": "uint256"
        }
      ],
      "name": "createMarketOrder",
      "outputs": [],
      "stateMutability": "nonpayable",
      "type": "function"
    },
    {
      "inputs": [],
      "name": "getTokenListLength",
      "outputs": [
        {
          "internalType": "uint256",
          "name": "",
          "type": "uint256"
        }
      ],
      "stateMutability": "view",
      "type": "function",
      "constant": true
    }
  ],
  "bytecode": "0x6080604052600060035534801561001557600080fd5b506131d2806100256000396000f3fe6080604052600436106100dd5760003560e01c806399ec2f1c1161007f578063ba58ea6811610059578063ba58ea68146102d7578063c9630cb014610314578063f14210a61461033d578063f6326fb314610359576100dd565b806399ec2f1c146102485780639ead722214610271578063a8d2021a146102ae576100dd565b80635719dd22116100bb5780635719dd221461018d578063667cb4ba146101b85780636f3b62f9146101f65780639776aacf1461021f576100dd565b80630bb431b6146100e25780631f14df69146101255780632a58b33014610162575b600080fd5b3480156100ee57600080fd5b50610109600480360381019061010491906128df565b610363565b60405161011c9796959493929190612d74565b60405180910390f35b34801561013157600080fd5b5061014c600480360381019061014791906127c5565b6103fc565b6040516101599190612d59565b60405180910390f35b34801561016e57600080fd5b50610177610421565b6040516101849190612d59565b60405180910390f35b34801561019957600080fd5b506101a2610427565b6040516101af9190612d59565b60405180910390f35b3480156101c457600080fd5b506101df60048036038101906101da9190612832565b610434565b6040516101ed929190612cf0565b60405180910390f35b34801561020257600080fd5b5061021d60048036038101906102189190612985565b610478565b005b34801561022b57600080fd5b506102466004803603810190610241919061285f565b610ebf565b005b34801561025457600080fd5b5061026f600480360381019061026a9190612932565b610f7d565b005b34801561027d57600080fd5b50610298600480360381019061029391906129ec565b611e1f565b6040516102a59190612cd5565b60405180910390f35b3480156102ba57600080fd5b506102d560048036038101906102d09190612a19565b611e43565b005b3480156102e357600080fd5b506102fe60048036038101906102f9919061289f565b6120c3565b60405161030b9190612cb3565b60405180910390f35b34801561032057600080fd5b5061033b60048036038101906103369190612a19565b61221c565b005b610357600480360381019061035291906129ec565b61240b565b005b610361612621565b005b6004602052826000526040600020602052816000526040600020818154811061038b57600080fd5b906000526020600020906006020160009250925050508060000154908060010160009054906101000a900473ffffffffffffffffffffffffffffffffffffffff16908060010160149054906101000a900460ff16908060020154908060030154908060040154908060050154905087565b6002602052816000526040600020602052806000526040600020600091509150505481565b60035481565b6000600180549050905090565b60006020528060005260406000206000915090508060000154908060010160009054906101000a900473ffffffffffffffffffffffffffffffffffffffff16905082565b6000600181111561048c5761048b613035565b5b84600181111561049f5761049e613035565b5b1415610539576104b8818361271a90919063ffffffff16565b600260003373ffffffffffffffffffffffffffffffffffffffff1673ffffffffffffffffffffffffffffffffffffffff16815260200190815260200160002060007f4554480000000000000000000000000000000000000000000000000000000000815260200190815260200160002054101561053457600080fd5b6105c4565b60018081111561054c5761054b613035565b5b84600181111561055f5761055e613035565b5b14156105c35781600260003373ffffffffffffffffffffffffffffffffffffffff1673ffffffffffffffffffffffffffffffffffffffff16815260200190815260200160002060008581526020019081526020016000205410156105c257600080fd5b5b5b60006004600085815260200190815260200160002060008660018111156105ee576105ed613035565b5b81526020019081526020016000209050806040518060e0016040528060035481526020013373ffffffffffffffffffffffffffffffffffffffff16815260200187600181111561064157610640613035565b5b8152602001868152602001858152602001848152602001600081525090806001815401808255809150506001900390600052602060002090600602016000909190919091506000820151816000015560208201518160010160006101000a81548173ffffffffffffffffffffffffffffffffffffffff021916908373ffffffffffffffffffffffffffffffffffffffff16021790555060408201518160010160146101000a81548160ff0219169083600181111561070257610701613035565b5b0217905550606082015181600201556080820151816003015560a0820151816004015560c082015181600501555050600080828054905011610745576000610757565b600182805490506107569190612ee8565b5b90506000600181111561076d5761076c613035565b5b8660018111156107805761077f613035565b5b1415610afe575b6000811115610af9578181815481106107a3576107a2613093565b5b906000526020600020906006020160040154826001836107c39190612ee8565b815481106107d4576107d3613093565b5b90600052602060002090600602016004015411156107f157610af9565b6000826001836108019190612ee8565b8154811061081257610811613093565b5b90600052602060002090600602016040518060e0016040529081600082015481526020016001820160009054906101000a900473ffffffffffffffffffffffffffffffffffffffff1673ffffffffffffffffffffffffffffffffffffffff1673ffffffffffffffffffffffffffffffffffffffff1681526020016001820160149054906101000a900460ff1660018111156108b0576108af613035565b5b60018111156108c2576108c1613035565b5b8152602001600282015481526020016003820154815260200160048201548152602001600582015481525050905082828154811061090357610902613093565b5b90600052602060002090600602018360018461091f9190612ee8565b815481106109305761092f613093565b5b9060005260206000209060060201600082015481600001556001820160009054906101000a900473ffffffffffffffffffffffffffffffffffffffff168160010160006101000a81548173ffffffffffffffffffffffffffffffffffffffff021916908373ffffffffffffffffffffffffffffffffffffffff1602179055506001820160149054906101000a900460ff168160010160146101000a81548160ff021916908360018111156109e7576109e6613035565b5b02179055506002820154816002015560038201548160030155600482015481600401556005820154816005015590505080838381548110610a2b57610a2a613093565b5b90600052602060002090600602016000820151816000015560208201518160010160006101000a81548173ffffffffffffffffffffffffffffffffffffffff021916908373ffffffffffffffffffffffffffffffffffffffff16021790555060408201518160010160146101000a81548160ff02191690836001811115610ab557610ab4613035565b5b0217905550606082015181600201556080820151816003015560a0820151816004015560c082015181600501559050508180610af090612f93565b92505050610787565b610e9f565b600180811115610b1157610b10613035565b5b866001811115610b2457610b23613035565b5b1415610e9e575b6000811115610e9d57818181548110610b4757610b46613093565b5b90600052602060002090600602016004015482600183610b679190612ee8565b81548110610b7857610b77613093565b5b9060005260206000209060060201600401541015610b9557610e9d565b600082600183610ba59190612ee8565b81548110610bb657610bb5613093565b5b90600052602060002090600602016040518060e0016040529081600082015481526020016001820160009054906101000a900473ffffffffffffffffffffffffffffffffffffffff1673ffffffffffffffffffffffffffffffffffffffff1673ffffffffffffffffffffffffffffffffffffffff1681526020016001820160149054906101000a900460ff166001811115610c5457610c53613035565b5b6001811115610c6657610c65613035565b5b81526020016002820154815260200160038201548152602001600482015481526020016005820154815250509050828281548110610ca757610ca6613093565b5b906000526020600020906006020183600184610cc39190612ee8565b81548110610cd457610cd3613093565b5b9060005260206000209060060201600082015481600001556001820160009054906101000a900473ffffffffffffffffffffffffffffffffffffffff168160010160006101000a81548173ffffffffffffffffffffffffffffffffffffffff021916908373ffffffffffffffffffffffffffffffffffffffff1602179055506001820160149054906101000a900460ff168160010160146101000a81548160ff02191690836001811115610d8b57610d8a613035565b5b02179055506002820154816002015560038201548160030155600482015481600401556005820154816005015590505080838381548110610dcf57610dce613093565b5b90600052602060002090600602016000820151816000015560208201518160010160006101000a81548173ffffffffffffffffffffffffffffffffffffffff021916908373ffffffffffffffffffffffffffffffffffffffff16021790555060408201518160010160146101000a81548160ff02191690836001811115610e5957610e58613035565b5b0217905550606082015181600201556080820151816003015560a0820151816004015560c082015181600501559050508180610e9490612f93565b92505050610b2b565b5b5b60036000815480929190610eb290612fbd565b9190505550505050505050565b60405180604001604052808381526020018273ffffffffffffffffffffffffffffffffffffffff168152506000808481526020019081526020016000206000820151816000015560208201518160010160006101000a81548173ffffffffffffffffffffffffffffffffffffffff021916908373ffffffffffffffffffffffffffffffffffffffff16021790555090505060018290806001815401808255809150506001900390600052602060002001600090919091909150555050565b600180811115610f9057610f8f613035565b5b836001811115610fa357610fa2613035565b5b141561103d5780600260003373ffffffffffffffffffffffffffffffffffffffff1673ffffffffffffffffffffffffffffffffffffffff168152602001908152602001600020600084815260200190815260200160002054101561103c576040517f08c379a000000000000000000000000000000000000000000000000000000000815260040161103390612d19565b60405180910390fd5b5b600080600181111561105257611051613035565b5b84600181111561106557611064613035565b5b14156110745760019050611079565b600090505b60006004600085815260200190815260200160002060008381526020019081526020016000209050600080600090505b8280549050811080156110bb57508482105b15611bcb5760006110d5838761273090919063ffffffff16565b905060006111348584815481106110ef576110ee613093565b5b90600052602060002090600602016005015486858154811061111457611113613093565b5b90600052602060002090600602016003015461273090919063ffffffff16565b905060008282111561114857829050611155565b82821015611154578190505b5b611168818661274690919063ffffffff16565b94506111a18187868154811061118157611180613093565b5b90600052602060002090600602016005015461274690919063ffffffff16565b8685815481106111b4576111b3613093565b5b90600052602060002090600602016005018190555060006112028786815481106111e1576111e0613093565b5b9060005260206000209060060201600401548361271a90919063ffffffff16565b90506000600181111561121857611217613035565b5b8b600181111561122b5761122a613035565b5b141561171b5780600260003373ffffffffffffffffffffffffffffffffffffffff1673ffffffffffffffffffffffffffffffffffffffff16815260200190815260200160002060007f455448000000000000000000000000000000000000000000000000000000000081526020019081526020016000205410156112ae57600080fd5b61131182600260003373ffffffffffffffffffffffffffffffffffffffff1673ffffffffffffffffffffffffffffffffffffffff16815260200190815260200160002060008d81526020019081526020016000205461274690919063ffffffff16565b600260003373ffffffffffffffffffffffffffffffffffffffff1673ffffffffffffffffffffffffffffffffffffffff16815260200190815260200160002060008c8152602001908152602001600020819055506113e881600260003373ffffffffffffffffffffffffffffffffffffffff1673ffffffffffffffffffffffffffffffffffffffff16815260200190815260200160002060007f455448000000000000000000000000000000000000000000000000000000000081526020019081526020016000205461273090919063ffffffff16565b600260003373ffffffffffffffffffffffffffffffffffffffff1673ffffffffffffffffffffffffffffffffffffffff16815260200190815260200160002060007f455448000000000000000000000000000000000000000000000000000000000081526020019081526020016000208190555061150382600260008a898154811061147757611476613093565b5b906000526020600020906006020160010160009054906101000a900473ffffffffffffffffffffffffffffffffffffffff1673ffffffffffffffffffffffffffffffffffffffff1673ffffffffffffffffffffffffffffffffffffffff16815260200190815260200160002060008d81526020019081526020016000205461273090919063ffffffff16565b6002600089888154811061151a57611519613093565b5b906000526020600020906006020160010160009054906101000a900473ffffffffffffffffffffffffffffffffffffffff1673ffffffffffffffffffffffffffffffffffffffff1673ffffffffffffffffffffffffffffffffffffffff16815260200190815260200160002060008c81526020019081526020016000208190555061166281600260008a89815481106115b6576115b5613093565b5b906000526020600020906006020160010160009054906101000a900473ffffffffffffffffffffffffffffffffffffffff1673ffffffffffffffffffffffffffffffffffffffff1673ffffffffffffffffffffffffffffffffffffffff16815260200190815260200160002060007f455448000000000000000000000000000000000000000000000000000000000081526020019081526020016000205461274690919063ffffffff16565b6002600089888154811061167957611678613093565b5b906000526020600020906006020160010160009054906101000a900473ffffffffffffffffffffffffffffffffffffffff1673ffffffffffffffffffffffffffffffffffffffff1673ffffffffffffffffffffffffffffffffffffffff16815260200190815260200160002060007f45544800000000000000000000000000000000000000000000000000000000008152602001908152602001600020819055505b60018081111561172e5761172d613035565b5b8b600181111561174157611740613035565b5b1415611bb4576117ca82600260003373ffffffffffffffffffffffffffffffffffffffff1673ffffffffffffffffffffffffffffffffffffffff16815260200190815260200160002060007f455448000000000000000000000000000000000000000000000000000000000081526020019081526020016000205461273090919063ffffffff16565b600260003373ffffffffffffffffffffffffffffffffffffffff1673ffffffffffffffffffffffffffffffffffffffff16815260200190815260200160002060007f45544800000000000000000000000000000000000000000000000000000000008152602001908152602001600020819055506118a181600260003373ffffffffffffffffffffffffffffffffffffffff1673ffffffffffffffffffffffffffffffffffffffff16815260200190815260200160002060008d81526020019081526020016000205461274690919063ffffffff16565b600260003373ffffffffffffffffffffffffffffffffffffffff1673ffffffffffffffffffffffffffffffffffffffff16815260200190815260200160002060008c8152602001908152602001600020819055506119bc81600260008a89815481106119105761190f613093565b5b906000526020600020906006020160010160009054906101000a900473ffffffffffffffffffffffffffffffffffffffff1673ffffffffffffffffffffffffffffffffffffffff1673ffffffffffffffffffffffffffffffffffffffff16815260200190815260200160002060007f455448000000000000000000000000000000000000000000000000000000000081526020019081526020016000205461273090919063ffffffff16565b600260008988815481106119d3576119d2613093565b5b906000526020600020906006020160010160009054906101000a900473ffffffffffffffffffffffffffffffffffffffff1673ffffffffffffffffffffffffffffffffffffffff1673ffffffffffffffffffffffffffffffffffffffff16815260200190815260200160002060007f4554480000000000000000000000000000000000000000000000000000000000815260200190815260200160002081905550611b1b82600260008a8981548110611a8f57611a8e613093565b5b906000526020600020906006020160010160009054906101000a900473ffffffffffffffffffffffffffffffffffffffff1673ffffffffffffffffffffffffffffffffffffffff1673ffffffffffffffffffffffffffffffffffffffff16815260200190815260200160002060008d81526020019081526020016000205461274690919063ffffffff16565b60026000898881548110611b3257611b31613093565b5b906000526020600020906006020160010160009054906101000a900473ffffffffffffffffffffffffffffffffffffffff1673ffffffffffffffffffffffffffffffffffffffff1673ffffffffffffffffffffffffffffffffffffffff16815260200190815260200160002060008c8152602001908152602001600020819055505b505050508080611bc390612fbd565b9150506110a9565b505b60008280549050118015611c2a575081600081548110611bf057611bef613093565b5b90600052602060002090600602016005015482600081548110611c1657611c15613093565b5b906000526020600020906006020160030154145b15611e175760005b60018380549050611c439190612ee8565b811015611d845782600182611c589190612e38565b81548110611c6957611c68613093565b5b9060005260206000209060060201838281548110611c8a57611c89613093565b5b9060005260206000209060060201600082015481600001556001820160009054906101000a900473ffffffffffffffffffffffffffffffffffffffff168160010160006101000a81548173ffffffffffffffffffffffffffffffffffffffff021916908373ffffffffffffffffffffffffffffffffffffffff1602179055506001820160149054906101000a900460ff168160010160146101000a81548160ff02191690836001811115611d4157611d40613035565b5b0217905550600282015481600201556003820154816003015560048201548160040155600582015481600501559050508080611d7c90612fbd565b915050611c32565b5081805480611d9657611d95613064565b5b60019003818190600052602060002090600602016000808201600090556001820160006101000a81549073ffffffffffffffffffffffffffffffffffffffff02191690556001820160146101000a81549060ff0219169055600282016000905560038201600090556004820160009055600582016000905550509055611bcd565b505050505050565b60018181548110611e2f57600080fd5b906000526020600020016000915090505481565b600073ffffffffffffffffffffffffffffffffffffffff1660008083815260200190815260200160002060010160009054906101000a900473ffffffffffffffffffffffffffffffffffffffff1673ffffffffffffffffffffffffffffffffffffffff161415611eb257600080fd5b81600260003373ffffffffffffffffffffffffffffffffffffffff1673ffffffffffffffffffffffffffffffffffffffff1681526020019081526020016000206000838152602001908152602001600020541015611f45576040517f08c379a0000000000000000000000000000000000000000000000000000000008152600401611f3c90612d39565b60405180910390fd5b611fa882600260003373ffffffffffffffffffffffffffffffffffffffff1673ffffffffffffffffffffffffffffffffffffffff16815260200190815260200160002060008481526020019081526020016000205461273090919063ffffffff16565b600260003373ffffffffffffffffffffffffffffffffffffffff1673ffffffffffffffffffffffffffffffffffffffff16815260200190815260200160002060008381526020019081526020016000208190555060008082815260200190815260200160002060010160009054906101000a900473ffffffffffffffffffffffffffffffffffffffff1673ffffffffffffffffffffffffffffffffffffffff1663a9059cbb33846040518363ffffffff1660e01b815260040161206c929190612c8a565b602060405180830381600087803b15801561208657600080fd5b505af115801561209a573d6000803e3d6000fd5b505050506040513d601f19601f820116820180604052508101906120be9190612805565b505050565b60606004600084815260200190815260200160002060008360018111156120ed576120ec613035565b5b8152602001908152602001600020805480602002602001604051908101604052809291908181526020016000905b8282101561221057838290600052602060002090600602016040518060e0016040529081600082015481526020016001820160009054906101000a900473ffffffffffffffffffffffffffffffffffffffff1673ffffffffffffffffffffffffffffffffffffffff1673ffffffffffffffffffffffffffffffffffffffff1681526020016001820160149054906101000a900460ff1660018111156121c3576121c2613035565b5b60018111156121d5576121d4613035565b5b81526020016002820154815260200160038201548152602001600482015481526020016005820154815250508152602001906001019061211b565b50505050905092915050565b600073ffffffffffffffffffffffffffffffffffffffff1660008083815260200190815260200160002060010160009054906101000a900473ffffffffffffffffffffffffffffffffffffffff1673ffffffffffffffffffffffffffffffffffffffff16141561228b57600080fd5b60008082815260200190815260200160002060010160009054906101000a900473ffffffffffffffffffffffffffffffffffffffff1673ffffffffffffffffffffffffffffffffffffffff166323b872dd3330856040518463ffffffff1660e01b81526004016122fd93929190612c53565b602060405180830381600087803b15801561231757600080fd5b505af115801561232b573d6000803e3d6000fd5b505050506040513d601f19601f8201168201806040525081019061234f9190612805565b506123b382600260003373ffffffffffffffffffffffffffffffffffffffff1673ffffffffffffffffffffffffffffffffffffffff16815260200190815260200160002060008481526020019081526020016000205461274690919063ffffffff16565b600260003373ffffffffffffffffffffffffffffffffffffffff1673ffffffffffffffffffffffffffffffffffffffff1681526020019081526020016000206000838152602001908152602001600020819055505050565b80600260003373ffffffffffffffffffffffffffffffffffffffff1673ffffffffffffffffffffffffffffffffffffffff16815260200190815260200160002060007f455448000000000000000000000000000000000000000000000000000000000081526020019081526020016000205410156124be576040517f08c379a00000000000000000000000000000000000000000000000000000000081526004016124b590612d19565b60405180910390fd5b61254134600260003373ffffffffffffffffffffffffffffffffffffffff1673ffffffffffffffffffffffffffffffffffffffff16815260200190815260200160002060007f455448000000000000000000000000000000000000000000000000000000000081526020019081526020016000205461273090919063ffffffff16565b600260003373ffffffffffffffffffffffffffffffffffffffff1673ffffffffffffffffffffffffffffffffffffffff16815260200190815260200160002060007f45544800000000000000000000000000000000000000000000000000000000008152602001908152602001600020819055503373ffffffffffffffffffffffffffffffffffffffff16816040516125d990612c3e565b60006040518083038185875af1925050503d8060008114612616576040519150601f19603f3d011682016040523d82523d6000602084013e61261b565b606091505b50505050565b6126a434600260003373ffffffffffffffffffffffffffffffffffffffff1673ffffffffffffffffffffffffffffffffffffffff16815260200190815260200160002060007f455448000000000000000000000000000000000000000000000000000000000081526020019081526020016000205461274690919063ffffffff16565b600260003373ffffffffffffffffffffffffffffffffffffffff1673ffffffffffffffffffffffffffffffffffffffff16815260200190815260200160002060007f4554480000000000000000000000000000000000000000000000000000000000815260200190815260200160002081905550565b600081836127289190612e8e565b905092915050565b6000818361273e9190612ee8565b905092915050565b600081836127549190612e38565b905092915050565b60008135905061276b81613130565b92915050565b60008151905061278081613147565b92915050565b6000813590506127958161315e565b92915050565b6000813590506127aa81613175565b92915050565b6000813590506127bf81613185565b92915050565b600080604083850312156127dc576127db6130c2565b5b60006127ea8582860161275c565b92505060206127fb85828601612786565b9150509250929050565b60006020828403121561281b5761281a6130c2565b5b600061282984828501612771565b91505092915050565b600060208284031215612848576128476130c2565b5b600061285684828501612786565b91505092915050565b60008060408385031215612876576128756130c2565b5b600061288485828601612786565b92505060206128958582860161275c565b9150509250929050565b600080604083850312156128b6576128b56130c2565b5b60006128c485828601612786565b92505060206128d58582860161279b565b9150509250929050565b6000806000606084860312156128f8576128f76130c2565b5b600061290686828701612786565b9350506020612917868287016127b0565b9250506040612928868287016127b0565b9150509250925092565b60008060006060848603121561294b5761294a6130c2565b5b60006129598682870161279b565b935050602061296a86828701612786565b925050604061297b868287016127b0565b9150509250925092565b6000806000806080858703121561299f5761299e6130c2565b5b60006129ad8782880161279b565b94505060206129be87828801612786565b93505060406129cf878288016127b0565b92505060606129e0878288016127b0565b91505092959194509250565b600060208284031215612a0257612a016130c2565b5b6000612a10848285016127b0565b91505092915050565b60008060408385031215612a3057612a2f6130c2565b5b6000612a3e858286016127b0565b9250506020612a4f85828601612786565b9150509250929050565b6000612a658383612b92565b60e08301905092915050565b612a7a81612f1c565b82525050565b612a8981612f1c565b82525050565b6000612a9a82612df3565b612aa48185612e0b565b9350612aaf83612de3565b8060005b83811015612ae0578151612ac78882612a59565b9750612ad283612dfe565b925050600181019050612ab3565b5085935050505092915050565b612af681612f3a565b82525050565b612b0581612f3a565b82525050565b612b1481612f81565b82525050565b612b2381612f81565b82525050565b6000612b36601483612e27565b9150612b41826130c7565b602082019050919050565b6000612b59601683612e27565b9150612b64826130f0565b602082019050919050565b6000612b7c600083612e1c565b9150612b8782613119565b600082019050919050565b60e082016000820151612ba86000850182612c20565b506020820151612bbb6020850182612a71565b506040820151612bce6040850182612b0b565b506060820151612be16060850182612aed565b506080820151612bf46080850182612c20565b5060a0820151612c0760a0850182612c20565b5060c0820151612c1a60c0850182612c20565b50505050565b612c2981612f77565b82525050565b612c3881612f77565b82525050565b6000612c4982612b6f565b9150819050919050565b6000606082019050612c686000830186612a80565b612c756020830185612a80565b612c826040830184612c2f565b949350505050565b6000604082019050612c9f6000830185612a80565b612cac6020830184612c2f565b9392505050565b60006020820190508181036000830152612ccd8184612a8f565b905092915050565b6000602082019050612cea6000830184612afc565b92915050565b6000604082019050612d056000830185612afc565b612d126020830184612a80565b9392505050565b60006020820190508181036000830152612d3281612b29565b9050919050565b60006020820190508181036000830152612d5281612b4c565b9050919050565b6000602082019050612d6e6000830184612c2f565b92915050565b600060e082019050612d89600083018a612c2f565b612d966020830189612a80565b612da36040830188612b1a565b612db06060830187612afc565b612dbd6080830186612c2f565b612dca60a0830185612c2f565b612dd760c0830184612c2f565b98975050505050505050565b6000819050602082019050919050565b600081519050919050565b6000602082019050919050565b600082825260208201905092915050565b600081905092915050565b600082825260208201905092915050565b6000612e4382612f77565b9150612e4e83612f77565b9250827fffffffffffffffffffffffffffffffffffffffffffffffffffffffffffffffff03821115612e8357612e82613006565b5b828201905092915050565b6000612e9982612f77565b9150612ea483612f77565b9250817fffffffffffffffffffffffffffffffffffffffffffffffffffffffffffffffff0483118215151615612edd57612edc613006565b5b828202905092915050565b6000612ef382612f77565b9150612efe83612f77565b925082821015612f1157612f10613006565b5b828203905092915050565b6000612f2782612f57565b9050919050565b60008115159050919050565b6000819050919050565b6000819050612f528261311c565b919050565b600073ffffffffffffffffffffffffffffffffffffffff82169050919050565b6000819050919050565b6000612f8c82612f44565b9050919050565b6000612f9e82612f77565b91506000821415612fb257612fb1613006565b5b600182039050919050565b6000612fc882612f77565b91507fffffffffffffffffffffffffffffffffffffffffffffffffffffffffffffffff821415612ffb57612ffa613006565b5b600182019050919050565b7f4e487b7100000000000000000000000000000000000000000000000000000000600052601160045260246000fd5b7f4e487b7100000000000000000000000000000000000000000000000000000000600052602160045260246000fd5b7f4e487b7100000000000000000000000000000000000000000000000000000000600052603160045260246000fd5b7f4e487b7100000000000000000000000000000000000000000000000000000000600052603260045260246000fd5b600080fd5b7f496e73756666696369656e742062616c616e6365000000000000000000000000600082015250565b7f42616c616e6365206e6f742073756666696369656e7400000000000000000000600082015250565b50565b6002811061312d5761312c613035565b5b50565b61313981612f1c565b811461314457600080fd5b50565b61315081612f2e565b811461315b57600080fd5b50565b61316781612f3a565b811461317257600080fd5b50565b6002811061318257600080fd5b50565b61318e81612f77565b811461319957600080fd5b5056fea2646970667358221220af8619eec233eca3543e6ed661ef85a35102cc30e77a717947d91ede91fbb0de64736f6c63430008070033",
  "immutableReferences": {},
  "source": "// SPDX-License-Identifier: MIT\r\npragma solidity 0.8.7;\r\npragma experimental ABIEncoderV2;\r\n\r\nimport \"./wallet.sol\";\r\n\r\ncontract Dex is Wallet {\r\n\r\n    using SafeMath for uint256;\r\n\r\n    enum Side {\r\n        BUY,\r\n        SELL\r\n    }\r\n\r\n    struct Order {\r\n        uint id;\r\n        address trader;\r\n        Side side;\r\n        bytes32 ticker;\r\n        uint amount;\r\n        uint price;\r\n        uint filled;\r\n\r\n    }\r\n    uint public nextOrderId =0;\r\n\r\n    mapping(bytes32 => mapping(uint => Order[])) public orderBook;\r\n\r\n    function getOrderBook(bytes32 ticker, Side side) view public returns(Order[] memory){\r\n        return orderBook[ticker][uint(side)];\r\n    }\r\n\r\n    function depositETH() public payable {\r\n        balances[msg.sender][bytes32(\"ETH\")] = balances[msg.sender][bytes32(\"ETH\")].add(msg.value);\r\n\r\n    }\r\n\r\n    function withdrawETH(uint amount) public payable{\r\n        require(balances[msg.sender][\"ETH\"] >= amount, \"Insufficient balance\");\r\n        balances[msg.sender][\"ETH\"] = balances[msg.sender][\"ETH\"].sub(msg.value);\r\n        msg.sender.call{value:amount}(\"\");\r\n    }\r\n\r\n   function createLimitOrder(Side side, bytes32 ticker, uint amount, uint price) public{\r\n       if(side == Side.BUY){\r\n           require(balances[msg.sender][\"ETH\"] >= amount.mul(price));\r\n       }\r\n       else if(side == Side.SELL){\r\n               require(balances[msg.sender][ticker] >= amount);\r\n           }\r\n\r\n        Order [] storage orders = orderBook[ticker][uint(side)];\r\n        orders.push(\r\n            Order(nextOrderId, msg.sender, side, ticker, amount, price, 0)\r\n        );\r\n\r\n        //Bubble sort\r\n        uint i = orders.length > 0 ? orders.length -1 : 0;\r\n        /*\r\n        if(orders.length > 0){\r\n            i = orders.length -1;\r\n        }\r\n        else{\r\n            i = 0;\r\n        }\r\n        */\r\n        if(side == Side.BUY){\r\n            while(i>0){\r\n                if(orders[i-1].price > orders[i].price){\r\n                    break;\r\n                }\r\n\r\n            Order memory orderToMove = orders[i-1];\r\n            orders[i-1] = orders[i];\r\n            orders[i] = orderToMove;\r\n            i--;\r\n            }\r\n        }\r\n\r\n\r\n        else if(side == Side.SELL){\r\n            while(i>0){\r\n                if(orders[i-1].price < orders[i].price){\r\n                    break;\r\n                }\r\n\r\n            Order memory orderToMove = orders[i-1];\r\n            orders[i-1] = orders[i];\r\n            orders[i] = orderToMove;\r\n            i--;\r\n          }\r\n        }\r\n        nextOrderId++;\r\n    }\r\n\r\n    function createMarketOrder(Side side, bytes32 ticker, uint amount) public {\r\n        if(side == Side.SELL){\r\n            require(balances[msg.sender][ticker]>= amount, \"Insufficient balance\");\r\n        }\r\n\r\n        uint orderBookSide;\r\n        if(side == Side.BUY){\r\n            orderBookSide = 1;\r\n        }else {\r\n            orderBookSide = 0;\r\n        }\r\n\r\n        Order [] storage orders = orderBook[ticker][orderBookSide];\r\n\r\n        uint totalFilled;\r\n\r\n\r\n        for(uint i = 0; i < orders.length && totalFilled < amount; i++){\r\n            uint leftToFill = amount.sub(totalFilled);\r\n            uint availableToFill = orders[i].amount.sub(orders[i].filled);\r\n            uint filled = 0;\r\n            if(availableToFill > leftToFill){\r\n                filled = leftToFill; // fill the entire market order\r\n            }\r\n            else if (availableToFill < leftToFill) {\r\n                filled = availableToFill; // fill all you can\r\n            }\r\n\r\n            totalFilled = totalFilled.add(filled);\r\n\r\n            orders[i].filled = orders[i].filled.add(filled);\r\n            uint cost = filled.mul(orders[i].price);\r\n\r\n            if(side == Side.BUY){\r\n                require(balances[msg.sender][\"ETH\"]>= cost);\r\n\r\n                balances[msg.sender][ticker] = balances[msg.sender][ticker].add(filled);\r\n                balances[msg.sender][\"ETH\"] = balances[msg.sender][\"ETH\"].sub(cost);\r\n\r\n                balances[orders[i].trader][ticker] = balances[orders[i].trader][ticker].sub(filled);\r\n                balances[orders[i].trader][\"ETH\"] = balances[orders[i].trader][\"ETH\"].add(cost);\r\n            }\r\n\r\n            if(side == Side.SELL){\r\n                balances[msg.sender][\"ETH\"] = balances[msg.sender][\"ETH\"].sub(filled);\r\n                balances[msg.sender][ticker] = balances[msg.sender][ticker].add(cost);\r\n\r\n\r\n                balances[orders[i].trader][\"ETH\"] = balances[orders[i].trader][\"ETH\"].sub(cost);\r\n                balances[orders[i].trader][ticker] = balances[orders[i].trader][ticker].add(filled);\r\n\r\n            }\r\n\r\n        }\r\n\r\n        while(orders.length > 0 && orders[0].amount == orders[0].filled){\r\n            for(uint i = 0; i < orders.length -1; i++){\r\n                orders[i] = orders[i+1];\r\n            }\r\n            orders.pop();\r\n        }\r\n    }\r\n\r\n    function getTokenListLength() public view returns (uint) {\r\n        return tokenList.length;\r\n    }\r\n}\r\n",
  "sourcePath": "C:/Users/Riki/Desktop/Solidity/DEX/contracts/dex.sol",
  "compiler": {
    "name": "solc",
    "version": "0.8.7+commit.e28d00a7.Emscripten.clang"
  },
  "schemaVersion": "3.3.4",
  "updatedAt": "2022-01-18T19:12:53.828Z",
  "networkType": "ethereum",
  "devdoc": {
    "kind": "dev",
    "methods": {},
    "version": 1
  },
  "userdoc": {
    "kind": "user",
    "methods": {},
    "version": 1
  }
}