{
  "contractName": "Dex",
  "abi": [
    {
      "inputs": [
        {
          "internalType": "bytes32",
          "name": "ticker",
          "type": "bytes32"
        },
        {
          "internalType": "address",
          "name": "tokenAddress",
          "type": "address"
        }
      ],
      "name": "addToken",
      "outputs": [],
      "stateMutability": "nonpayable",
      "type": "function"
    },
    {
      "inputs": [
        {
          "internalType": "address",
          "name": "",
          "type": "address"
        },
        {
          "internalType": "bytes32",
          "name": "",
          "type": "bytes32"
        }
      ],
      "name": "balances",
      "outputs": [
        {
          "internalType": "uint256",
          "name": "",
          "type": "uint256"
        }
      ],
      "stateMutability": "view",
      "type": "function",
      "constant": true
    },
    {
      "inputs": [
        {
          "internalType": "uint256",
          "name": "amount",
          "type": "uint256"
        },
        {
          "internalType": "bytes32",
          "name": "ticker",
          "type": "bytes32"
        }
      ],
      "name": "deposit",
      "outputs": [],
      "stateMutability": "nonpayable",
      "type": "function"
    },
    {
      "inputs": [],
      "name": "nextOrderId",
      "outputs": [
        {
          "internalType": "uint256",
          "name": "",
          "type": "uint256"
        }
      ],
      "stateMutability": "view",
      "type": "function",
      "constant": true
    },
    {
      "inputs": [
        {
          "internalType": "bytes32",
          "name": "",
          "type": "bytes32"
        },
        {
          "internalType": "uint256",
          "name": "",
          "type": "uint256"
        },
        {
          "internalType": "uint256",
          "name": "",
          "type": "uint256"
        }
      ],
      "name": "orderBook",
      "outputs": [
        {
          "internalType": "uint256",
          "name": "id",
          "type": "uint256"
        },
        {
          "internalType": "address",
          "name": "trader",
          "type": "address"
        },
        {
          "internalType": "enum Dex.Side",
          "name": "side",
          "type": "uint8"
        },
        {
          "internalType": "bytes32",
          "name": "ticker",
          "type": "bytes32"
        },
        {
          "internalType": "uint256",
          "name": "amount",
          "type": "uint256"
        },
        {
          "internalType": "uint256",
          "name": "price",
          "type": "uint256"
        },
        {
          "internalType": "uint256",
          "name": "filled",
          "type": "uint256"
        }
      ],
      "stateMutability": "view",
      "type": "function",
      "constant": true
    },
    {
      "inputs": [
        {
          "internalType": "uint256",
          "name": "",
          "type": "uint256"
        }
      ],
      "name": "tokenList",
      "outputs": [
        {
          "internalType": "bytes32",
          "name": "",
          "type": "bytes32"
        }
      ],
      "stateMutability": "view",
      "type": "function",
      "constant": true
    },
    {
      "inputs": [
        {
          "internalType": "bytes32",
          "name": "",
          "type": "bytes32"
        }
      ],
      "name": "tokenMapping",
      "outputs": [
        {
          "internalType": "bytes32",
          "name": "ticker",
          "type": "bytes32"
        },
        {
          "internalType": "address",
          "name": "tokenAddress",
          "type": "address"
        }
      ],
      "stateMutability": "view",
      "type": "function",
      "constant": true
    },
    {
      "inputs": [
        {
          "internalType": "uint256",
          "name": "amount",
          "type": "uint256"
        },
        {
          "internalType": "bytes32",
          "name": "ticker",
          "type": "bytes32"
        }
      ],
      "name": "withdraw",
      "outputs": [],
      "stateMutability": "nonpayable",
      "type": "function"
    },
    {
      "inputs": [
        {
          "internalType": "bytes32",
          "name": "ticker",
          "type": "bytes32"
        },
        {
          "internalType": "enum Dex.Side",
          "name": "side",
          "type": "uint8"
        }
      ],
      "name": "getOrderBook",
      "outputs": [
        {
          "components": [
            {
              "internalType": "uint256",
              "name": "id",
              "type": "uint256"
            },
            {
              "internalType": "address",
              "name": "trader",
              "type": "address"
            },
            {
              "internalType": "enum Dex.Side",
              "name": "side",
              "type": "uint8"
            },
            {
              "internalType": "bytes32",
              "name": "ticker",
              "type": "bytes32"
            },
            {
              "internalType": "uint256",
              "name": "amount",
              "type": "uint256"
            },
            {
              "internalType": "uint256",
              "name": "price",
              "type": "uint256"
            },
            {
              "internalType": "uint256",
              "name": "filled",
              "type": "uint256"
            }
          ],
          "internalType": "struct Dex.Order[]",
          "name": "",
          "type": "tuple[]"
        }
      ],
      "stateMutability": "view",
      "type": "function",
      "constant": true
    },
    {
      "inputs": [],
      "name": "depositETH",
      "outputs": [],
      "stateMutability": "payable",
      "type": "function",
      "payable": true
    },
    {
      "inputs": [
        {
          "internalType": "uint256",
          "name": "amount",
          "type": "uint256"
        }
      ],
      "name": "withdrawETH",
      "outputs": [],
      "stateMutability": "nonpayable",
      "type": "function"
    },
    {
      "inputs": [
        {
          "internalType": "enum Dex.Side",
          "name": "side",
          "type": "uint8"
        },
        {
          "internalType": "bytes32",
          "name": "ticker",
          "type": "bytes32"
        },
        {
          "internalType": "uint256",
          "name": "amount",
          "type": "uint256"
        },
        {
          "internalType": "uint256",
          "name": "price",
          "type": "uint256"
        }
      ],
      "name": "createLimitOrder",
      "outputs": [],
      "stateMutability": "nonpayable",
      "type": "function"
    },
    {
      "inputs": [
        {
          "internalType": "enum Dex.Side",
          "name": "side",
          "type": "uint8"
        },
        {
          "internalType": "bytes32",
          "name": "ticker",
          "type": "bytes32"
        },
        {
          "internalType": "uint256",
          "name": "amount",
          "type": "uint256"
        }
      ],
      "name": "createMarketOrder",
      "outputs": [],
      "stateMutability": "nonpayable",
      "type": "function"
    },
    {
      "inputs": [],
      "name": "getTokenListLength",
      "outputs": [
        {
          "internalType": "uint256",
          "name": "",
          "type": "uint256"
        }
      ],
      "stateMutability": "view",
      "type": "function",
      "constant": true
    }
  ],
  "bytecode": "0x6080604052600060035534801561001557600080fd5b506131df806100256000396000f3fe6080604052600436106100dd5760003560e01c806399ec2f1c1161007f578063ba58ea6811610059578063ba58ea68146102d7578063c9630cb014610314578063f14210a61461033d578063f6326fb314610366576100dd565b806399ec2f1c146102485780639ead722214610271578063a8d2021a146102ae576100dd565b80635719dd22116100bb5780635719dd221461018d578063667cb4ba146101b85780636f3b62f9146101f65780639776aacf1461021f576100dd565b80630bb431b6146100e25780631f14df69146101255780632a58b33014610162575b600080fd5b3480156100ee57600080fd5b50610109600480360381019061010491906128ec565b610370565b60405161011c9796959493929190612d81565b60405180910390f35b34801561013157600080fd5b5061014c600480360381019061014791906127d2565b610409565b6040516101599190612d66565b60405180910390f35b34801561016e57600080fd5b5061017761042e565b6040516101849190612d66565b60405180910390f35b34801561019957600080fd5b506101a2610434565b6040516101af9190612d66565b60405180910390f35b3480156101c457600080fd5b506101df60048036038101906101da919061283f565b610441565b6040516101ed929190612cfd565b60405180910390f35b34801561020257600080fd5b5061021d60048036038101906102189190612992565b610485565b005b34801561022b57600080fd5b506102466004803603810190610241919061286c565b610ecc565b005b34801561025457600080fd5b5061026f600480360381019061026a919061293f565b610f8a565b005b34801561027d57600080fd5b50610298600480360381019061029391906129f9565b611e2c565b6040516102a59190612ce2565b60405180910390f35b3480156102ba57600080fd5b506102d560048036038101906102d09190612a26565b611e50565b005b3480156102e357600080fd5b506102fe60048036038101906102f991906128ac565b6120d0565b60405161030b9190612cc0565b60405180910390f35b34801561032057600080fd5b5061033b60048036038101906103369190612a26565b612229565b005b34801561034957600080fd5b50610364600480360381019061035f91906129f9565b612418565b005b61036e61262e565b005b6004602052826000526040600020602052816000526040600020818154811061039857600080fd5b906000526020600020906006020160009250925050508060000154908060010160009054906101000a900473ffffffffffffffffffffffffffffffffffffffff16908060010160149054906101000a900460ff16908060020154908060030154908060040154908060050154905087565b6002602052816000526040600020602052806000526040600020600091509150505481565b60035481565b6000600180549050905090565b60006020528060005260406000206000915090508060000154908060010160009054906101000a900473ffffffffffffffffffffffffffffffffffffffff16905082565b6000600181111561049957610498613042565b5b8460018111156104ac576104ab613042565b5b1415610546576104c5818361272790919063ffffffff16565b600260003373ffffffffffffffffffffffffffffffffffffffff1673ffffffffffffffffffffffffffffffffffffffff16815260200190815260200160002060007f4554480000000000000000000000000000000000000000000000000000000000815260200190815260200160002054101561054157600080fd5b6105d1565b60018081111561055957610558613042565b5b84600181111561056c5761056b613042565b5b14156105d05781600260003373ffffffffffffffffffffffffffffffffffffffff1673ffffffffffffffffffffffffffffffffffffffff16815260200190815260200160002060008581526020019081526020016000205410156105cf57600080fd5b5b5b60006004600085815260200190815260200160002060008660018111156105fb576105fa613042565b5b81526020019081526020016000209050806040518060e0016040528060035481526020013373ffffffffffffffffffffffffffffffffffffffff16815260200187600181111561064e5761064d613042565b5b8152602001868152602001858152602001848152602001600081525090806001815401808255809150506001900390600052602060002090600602016000909190919091506000820151816000015560208201518160010160006101000a81548173ffffffffffffffffffffffffffffffffffffffff021916908373ffffffffffffffffffffffffffffffffffffffff16021790555060408201518160010160146101000a81548160ff0219169083600181111561070f5761070e613042565b5b0217905550606082015181600201556080820151816003015560a0820151816004015560c082015181600501555050600080828054905011610752576000610764565b600182805490506107639190612ef5565b5b90506000600181111561077a57610779613042565b5b86600181111561078d5761078c613042565b5b1415610b0b575b6000811115610b06578181815481106107b0576107af6130a0565b5b906000526020600020906006020160040154826001836107d09190612ef5565b815481106107e1576107e06130a0565b5b90600052602060002090600602016004015411156107fe57610b06565b60008260018361080e9190612ef5565b8154811061081f5761081e6130a0565b5b90600052602060002090600602016040518060e0016040529081600082015481526020016001820160009054906101000a900473ffffffffffffffffffffffffffffffffffffffff1673ffffffffffffffffffffffffffffffffffffffff1673ffffffffffffffffffffffffffffffffffffffff1681526020016001820160149054906101000a900460ff1660018111156108bd576108bc613042565b5b60018111156108cf576108ce613042565b5b815260200160028201548152602001600382015481526020016004820154815260200160058201548152505090508282815481106109105761090f6130a0565b5b90600052602060002090600602018360018461092c9190612ef5565b8154811061093d5761093c6130a0565b5b9060005260206000209060060201600082015481600001556001820160009054906101000a900473ffffffffffffffffffffffffffffffffffffffff168160010160006101000a81548173ffffffffffffffffffffffffffffffffffffffff021916908373ffffffffffffffffffffffffffffffffffffffff1602179055506001820160149054906101000a900460ff168160010160146101000a81548160ff021916908360018111156109f4576109f3613042565b5b02179055506002820154816002015560038201548160030155600482015481600401556005820154816005015590505080838381548110610a3857610a376130a0565b5b90600052602060002090600602016000820151816000015560208201518160010160006101000a81548173ffffffffffffffffffffffffffffffffffffffff021916908373ffffffffffffffffffffffffffffffffffffffff16021790555060408201518160010160146101000a81548160ff02191690836001811115610ac257610ac1613042565b5b0217905550606082015181600201556080820151816003015560a0820151816004015560c082015181600501559050508180610afd90612fa0565b92505050610794565b610eac565b600180811115610b1e57610b1d613042565b5b866001811115610b3157610b30613042565b5b1415610eab575b6000811115610eaa57818181548110610b5457610b536130a0565b5b90600052602060002090600602016004015482600183610b749190612ef5565b81548110610b8557610b846130a0565b5b9060005260206000209060060201600401541015610ba257610eaa565b600082600183610bb29190612ef5565b81548110610bc357610bc26130a0565b5b90600052602060002090600602016040518060e0016040529081600082015481526020016001820160009054906101000a900473ffffffffffffffffffffffffffffffffffffffff1673ffffffffffffffffffffffffffffffffffffffff1673ffffffffffffffffffffffffffffffffffffffff1681526020016001820160149054906101000a900460ff166001811115610c6157610c60613042565b5b6001811115610c7357610c72613042565b5b81526020016002820154815260200160038201548152602001600482015481526020016005820154815250509050828281548110610cb457610cb36130a0565b5b906000526020600020906006020183600184610cd09190612ef5565b81548110610ce157610ce06130a0565b5b9060005260206000209060060201600082015481600001556001820160009054906101000a900473ffffffffffffffffffffffffffffffffffffffff168160010160006101000a81548173ffffffffffffffffffffffffffffffffffffffff021916908373ffffffffffffffffffffffffffffffffffffffff1602179055506001820160149054906101000a900460ff168160010160146101000a81548160ff02191690836001811115610d9857610d97613042565b5b02179055506002820154816002015560038201548160030155600482015481600401556005820154816005015590505080838381548110610ddc57610ddb6130a0565b5b90600052602060002090600602016000820151816000015560208201518160010160006101000a81548173ffffffffffffffffffffffffffffffffffffffff021916908373ffffffffffffffffffffffffffffffffffffffff16021790555060408201518160010160146101000a81548160ff02191690836001811115610e6657610e65613042565b5b0217905550606082015181600201556080820151816003015560a0820151816004015560c082015181600501559050508180610ea190612fa0565b92505050610b38565b5b5b60036000815480929190610ebf90612fca565b9190505550505050505050565b60405180604001604052808381526020018273ffffffffffffffffffffffffffffffffffffffff168152506000808481526020019081526020016000206000820151816000015560208201518160010160006101000a81548173ffffffffffffffffffffffffffffffffffffffff021916908373ffffffffffffffffffffffffffffffffffffffff16021790555090505060018290806001815401808255809150506001900390600052602060002001600090919091909150555050565b600180811115610f9d57610f9c613042565b5b836001811115610fb057610faf613042565b5b141561104a5780600260003373ffffffffffffffffffffffffffffffffffffffff1673ffffffffffffffffffffffffffffffffffffffff1681526020019081526020016000206000848152602001908152602001600020541015611049576040517f08c379a000000000000000000000000000000000000000000000000000000000815260040161104090612d26565b60405180910390fd5b5b600080600181111561105f5761105e613042565b5b84600181111561107257611071613042565b5b14156110815760019050611086565b600090505b60006004600085815260200190815260200160002060008381526020019081526020016000209050600080600090505b8280549050811080156110c857508482105b15611bd85760006110e2838761273d90919063ffffffff16565b905060006111418584815481106110fc576110fb6130a0565b5b906000526020600020906006020160050154868581548110611121576111206130a0565b5b90600052602060002090600602016003015461273d90919063ffffffff16565b905060008282111561115557829050611162565b82821015611161578190505b5b611175818661275390919063ffffffff16565b94506111ae8187868154811061118e5761118d6130a0565b5b90600052602060002090600602016005015461275390919063ffffffff16565b8685815481106111c1576111c06130a0565b5b906000526020600020906006020160050181905550600061120f8786815481106111ee576111ed6130a0565b5b9060005260206000209060060201600401548361272790919063ffffffff16565b90506000600181111561122557611224613042565b5b8b600181111561123857611237613042565b5b14156117285780600260003373ffffffffffffffffffffffffffffffffffffffff1673ffffffffffffffffffffffffffffffffffffffff16815260200190815260200160002060007f455448000000000000000000000000000000000000000000000000000000000081526020019081526020016000205410156112bb57600080fd5b61131e82600260003373ffffffffffffffffffffffffffffffffffffffff1673ffffffffffffffffffffffffffffffffffffffff16815260200190815260200160002060008d81526020019081526020016000205461275390919063ffffffff16565b600260003373ffffffffffffffffffffffffffffffffffffffff1673ffffffffffffffffffffffffffffffffffffffff16815260200190815260200160002060008c8152602001908152602001600020819055506113f581600260003373ffffffffffffffffffffffffffffffffffffffff1673ffffffffffffffffffffffffffffffffffffffff16815260200190815260200160002060007f455448000000000000000000000000000000000000000000000000000000000081526020019081526020016000205461273d90919063ffffffff16565b600260003373ffffffffffffffffffffffffffffffffffffffff1673ffffffffffffffffffffffffffffffffffffffff16815260200190815260200160002060007f455448000000000000000000000000000000000000000000000000000000000081526020019081526020016000208190555061151082600260008a8981548110611484576114836130a0565b5b906000526020600020906006020160010160009054906101000a900473ffffffffffffffffffffffffffffffffffffffff1673ffffffffffffffffffffffffffffffffffffffff1673ffffffffffffffffffffffffffffffffffffffff16815260200190815260200160002060008d81526020019081526020016000205461273d90919063ffffffff16565b60026000898881548110611527576115266130a0565b5b906000526020600020906006020160010160009054906101000a900473ffffffffffffffffffffffffffffffffffffffff1673ffffffffffffffffffffffffffffffffffffffff1673ffffffffffffffffffffffffffffffffffffffff16815260200190815260200160002060008c81526020019081526020016000208190555061166f81600260008a89815481106115c3576115c26130a0565b5b906000526020600020906006020160010160009054906101000a900473ffffffffffffffffffffffffffffffffffffffff1673ffffffffffffffffffffffffffffffffffffffff1673ffffffffffffffffffffffffffffffffffffffff16815260200190815260200160002060007f455448000000000000000000000000000000000000000000000000000000000081526020019081526020016000205461275390919063ffffffff16565b60026000898881548110611686576116856130a0565b5b906000526020600020906006020160010160009054906101000a900473ffffffffffffffffffffffffffffffffffffffff1673ffffffffffffffffffffffffffffffffffffffff1673ffffffffffffffffffffffffffffffffffffffff16815260200190815260200160002060007f45544800000000000000000000000000000000000000000000000000000000008152602001908152602001600020819055505b60018081111561173b5761173a613042565b5b8b600181111561174e5761174d613042565b5b1415611bc1576117d782600260003373ffffffffffffffffffffffffffffffffffffffff1673ffffffffffffffffffffffffffffffffffffffff16815260200190815260200160002060007f455448000000000000000000000000000000000000000000000000000000000081526020019081526020016000205461273d90919063ffffffff16565b600260003373ffffffffffffffffffffffffffffffffffffffff1673ffffffffffffffffffffffffffffffffffffffff16815260200190815260200160002060007f45544800000000000000000000000000000000000000000000000000000000008152602001908152602001600020819055506118ae81600260003373ffffffffffffffffffffffffffffffffffffffff1673ffffffffffffffffffffffffffffffffffffffff16815260200190815260200160002060008d81526020019081526020016000205461275390919063ffffffff16565b600260003373ffffffffffffffffffffffffffffffffffffffff1673ffffffffffffffffffffffffffffffffffffffff16815260200190815260200160002060008c8152602001908152602001600020819055506119c981600260008a898154811061191d5761191c6130a0565b5b906000526020600020906006020160010160009054906101000a900473ffffffffffffffffffffffffffffffffffffffff1673ffffffffffffffffffffffffffffffffffffffff1673ffffffffffffffffffffffffffffffffffffffff16815260200190815260200160002060007f455448000000000000000000000000000000000000000000000000000000000081526020019081526020016000205461273d90919063ffffffff16565b600260008988815481106119e0576119df6130a0565b5b906000526020600020906006020160010160009054906101000a900473ffffffffffffffffffffffffffffffffffffffff1673ffffffffffffffffffffffffffffffffffffffff1673ffffffffffffffffffffffffffffffffffffffff16815260200190815260200160002060007f4554480000000000000000000000000000000000000000000000000000000000815260200190815260200160002081905550611b2882600260008a8981548110611a9c57611a9b6130a0565b5b906000526020600020906006020160010160009054906101000a900473ffffffffffffffffffffffffffffffffffffffff1673ffffffffffffffffffffffffffffffffffffffff1673ffffffffffffffffffffffffffffffffffffffff16815260200190815260200160002060008d81526020019081526020016000205461275390919063ffffffff16565b60026000898881548110611b3f57611b3e6130a0565b5b906000526020600020906006020160010160009054906101000a900473ffffffffffffffffffffffffffffffffffffffff1673ffffffffffffffffffffffffffffffffffffffff1673ffffffffffffffffffffffffffffffffffffffff16815260200190815260200160002060008c8152602001908152602001600020819055505b505050508080611bd090612fca565b9150506110b6565b505b60008280549050118015611c37575081600081548110611bfd57611bfc6130a0565b5b90600052602060002090600602016005015482600081548110611c2357611c226130a0565b5b906000526020600020906006020160030154145b15611e245760005b60018380549050611c509190612ef5565b811015611d915782600182611c659190612e45565b81548110611c7657611c756130a0565b5b9060005260206000209060060201838281548110611c9757611c966130a0565b5b9060005260206000209060060201600082015481600001556001820160009054906101000a900473ffffffffffffffffffffffffffffffffffffffff168160010160006101000a81548173ffffffffffffffffffffffffffffffffffffffff021916908373ffffffffffffffffffffffffffffffffffffffff1602179055506001820160149054906101000a900460ff168160010160146101000a81548160ff02191690836001811115611d4e57611d4d613042565b5b0217905550600282015481600201556003820154816003015560048201548160040155600582015481600501559050508080611d8990612fca565b915050611c3f565b5081805480611da357611da2613071565b5b60019003818190600052602060002090600602016000808201600090556001820160006101000a81549073ffffffffffffffffffffffffffffffffffffffff02191690556001820160146101000a81549060ff0219169055600282016000905560038201600090556004820160009055600582016000905550509055611bda565b505050505050565b60018181548110611e3c57600080fd5b906000526020600020016000915090505481565b600073ffffffffffffffffffffffffffffffffffffffff1660008083815260200190815260200160002060010160009054906101000a900473ffffffffffffffffffffffffffffffffffffffff1673ffffffffffffffffffffffffffffffffffffffff161415611ebf57600080fd5b81600260003373ffffffffffffffffffffffffffffffffffffffff1673ffffffffffffffffffffffffffffffffffffffff1681526020019081526020016000206000838152602001908152602001600020541015611f52576040517f08c379a0000000000000000000000000000000000000000000000000000000008152600401611f4990612d46565b60405180910390fd5b611fb582600260003373ffffffffffffffffffffffffffffffffffffffff1673ffffffffffffffffffffffffffffffffffffffff16815260200190815260200160002060008481526020019081526020016000205461273d90919063ffffffff16565b600260003373ffffffffffffffffffffffffffffffffffffffff1673ffffffffffffffffffffffffffffffffffffffff16815260200190815260200160002060008381526020019081526020016000208190555060008082815260200190815260200160002060010160009054906101000a900473ffffffffffffffffffffffffffffffffffffffff1673ffffffffffffffffffffffffffffffffffffffff1663a9059cbb33846040518363ffffffff1660e01b8152600401612079929190612c97565b602060405180830381600087803b15801561209357600080fd5b505af11580156120a7573d6000803e3d6000fd5b505050506040513d601f19601f820116820180604052508101906120cb9190612812565b505050565b60606004600084815260200190815260200160002060008360018111156120fa576120f9613042565b5b8152602001908152602001600020805480602002602001604051908101604052809291908181526020016000905b8282101561221d57838290600052602060002090600602016040518060e0016040529081600082015481526020016001820160009054906101000a900473ffffffffffffffffffffffffffffffffffffffff1673ffffffffffffffffffffffffffffffffffffffff1673ffffffffffffffffffffffffffffffffffffffff1681526020016001820160149054906101000a900460ff1660018111156121d0576121cf613042565b5b60018111156121e2576121e1613042565b5b815260200160028201548152602001600382015481526020016004820154815260200160058201548152505081526020019060010190612128565b50505050905092915050565b600073ffffffffffffffffffffffffffffffffffffffff1660008083815260200190815260200160002060010160009054906101000a900473ffffffffffffffffffffffffffffffffffffffff1673ffffffffffffffffffffffffffffffffffffffff16141561229857600080fd5b60008082815260200190815260200160002060010160009054906101000a900473ffffffffffffffffffffffffffffffffffffffff1673ffffffffffffffffffffffffffffffffffffffff166323b872dd3330856040518463ffffffff1660e01b815260040161230a93929190612c60565b602060405180830381600087803b15801561232457600080fd5b505af1158015612338573d6000803e3d6000fd5b505050506040513d601f19601f8201168201806040525081019061235c9190612812565b506123c082600260003373ffffffffffffffffffffffffffffffffffffffff1673ffffffffffffffffffffffffffffffffffffffff16815260200190815260200160002060008481526020019081526020016000205461275390919063ffffffff16565b600260003373ffffffffffffffffffffffffffffffffffffffff1673ffffffffffffffffffffffffffffffffffffffff1681526020019081526020016000206000838152602001908152602001600020819055505050565b80600260003373ffffffffffffffffffffffffffffffffffffffff1673ffffffffffffffffffffffffffffffffffffffff16815260200190815260200160002060007f455448000000000000000000000000000000000000000000000000000000000081526020019081526020016000205410156124cb576040517f08c379a00000000000000000000000000000000000000000000000000000000081526004016124c290612d26565b60405180910390fd5b61254e81600260003373ffffffffffffffffffffffffffffffffffffffff1673ffffffffffffffffffffffffffffffffffffffff16815260200190815260200160002060007f455448000000000000000000000000000000000000000000000000000000000081526020019081526020016000205461273d90919063ffffffff16565b600260003373ffffffffffffffffffffffffffffffffffffffff1673ffffffffffffffffffffffffffffffffffffffff16815260200190815260200160002060007f45544800000000000000000000000000000000000000000000000000000000008152602001908152602001600020819055503373ffffffffffffffffffffffffffffffffffffffff16816040516125e690612c4b565b60006040518083038185875af1925050503d8060008114612623576040519150601f19603f3d011682016040523d82523d6000602084013e612628565b606091505b50505050565b6126b134600260003373ffffffffffffffffffffffffffffffffffffffff1673ffffffffffffffffffffffffffffffffffffffff16815260200190815260200160002060007f455448000000000000000000000000000000000000000000000000000000000081526020019081526020016000205461275390919063ffffffff16565b600260003373ffffffffffffffffffffffffffffffffffffffff1673ffffffffffffffffffffffffffffffffffffffff16815260200190815260200160002060007f4554480000000000000000000000000000000000000000000000000000000000815260200190815260200160002081905550565b600081836127359190612e9b565b905092915050565b6000818361274b9190612ef5565b905092915050565b600081836127619190612e45565b905092915050565b6000813590506127788161313d565b92915050565b60008151905061278d81613154565b92915050565b6000813590506127a28161316b565b92915050565b6000813590506127b781613182565b92915050565b6000813590506127cc81613192565b92915050565b600080604083850312156127e9576127e86130cf565b5b60006127f785828601612769565b925050602061280885828601612793565b9150509250929050565b600060208284031215612828576128276130cf565b5b60006128368482850161277e565b91505092915050565b600060208284031215612855576128546130cf565b5b600061286384828501612793565b91505092915050565b60008060408385031215612883576128826130cf565b5b600061289185828601612793565b92505060206128a285828601612769565b9150509250929050565b600080604083850312156128c3576128c26130cf565b5b60006128d185828601612793565b92505060206128e2858286016127a8565b9150509250929050565b600080600060608486031215612905576129046130cf565b5b600061291386828701612793565b9350506020612924868287016127bd565b9250506040612935868287016127bd565b9150509250925092565b600080600060608486031215612958576129576130cf565b5b6000612966868287016127a8565b935050602061297786828701612793565b9250506040612988868287016127bd565b9150509250925092565b600080600080608085870312156129ac576129ab6130cf565b5b60006129ba878288016127a8565b94505060206129cb87828801612793565b93505060406129dc878288016127bd565b92505060606129ed878288016127bd565b91505092959194509250565b600060208284031215612a0f57612a0e6130cf565b5b6000612a1d848285016127bd565b91505092915050565b60008060408385031215612a3d57612a3c6130cf565b5b6000612a4b858286016127bd565b9250506020612a5c85828601612793565b9150509250929050565b6000612a728383612b9f565b60e08301905092915050565b612a8781612f29565b82525050565b612a9681612f29565b82525050565b6000612aa782612e00565b612ab18185612e18565b9350612abc83612df0565b8060005b83811015612aed578151612ad48882612a66565b9750612adf83612e0b565b925050600181019050612ac0565b5085935050505092915050565b612b0381612f47565b82525050565b612b1281612f47565b82525050565b612b2181612f8e565b82525050565b612b3081612f8e565b82525050565b6000612b43601483612e34565b9150612b4e826130d4565b602082019050919050565b6000612b66601683612e34565b9150612b71826130fd565b602082019050919050565b6000612b89600083612e29565b9150612b9482613126565b600082019050919050565b60e082016000820151612bb56000850182612c2d565b506020820151612bc86020850182612a7e565b506040820151612bdb6040850182612b18565b506060820151612bee6060850182612afa565b506080820151612c016080850182612c2d565b5060a0820151612c1460a0850182612c2d565b5060c0820151612c2760c0850182612c2d565b50505050565b612c3681612f84565b82525050565b612c4581612f84565b82525050565b6000612c5682612b7c565b9150819050919050565b6000606082019050612c756000830186612a8d565b612c826020830185612a8d565b612c8f6040830184612c3c565b949350505050565b6000604082019050612cac6000830185612a8d565b612cb96020830184612c3c565b9392505050565b60006020820190508181036000830152612cda8184612a9c565b905092915050565b6000602082019050612cf76000830184612b09565b92915050565b6000604082019050612d126000830185612b09565b612d1f6020830184612a8d565b9392505050565b60006020820190508181036000830152612d3f81612b36565b9050919050565b60006020820190508181036000830152612d5f81612b59565b9050919050565b6000602082019050612d7b6000830184612c3c565b92915050565b600060e082019050612d96600083018a612c3c565b612da36020830189612a8d565b612db06040830188612b27565b612dbd6060830187612b09565b612dca6080830186612c3c565b612dd760a0830185612c3c565b612de460c0830184612c3c565b98975050505050505050565b6000819050602082019050919050565b600081519050919050565b6000602082019050919050565b600082825260208201905092915050565b600081905092915050565b600082825260208201905092915050565b6000612e5082612f84565b9150612e5b83612f84565b9250827fffffffffffffffffffffffffffffffffffffffffffffffffffffffffffffffff03821115612e9057612e8f613013565b5b828201905092915050565b6000612ea682612f84565b9150612eb183612f84565b9250817fffffffffffffffffffffffffffffffffffffffffffffffffffffffffffffffff0483118215151615612eea57612ee9613013565b5b828202905092915050565b6000612f0082612f84565b9150612f0b83612f84565b925082821015612f1e57612f1d613013565b5b828203905092915050565b6000612f3482612f64565b9050919050565b60008115159050919050565b6000819050919050565b6000819050612f5f82613129565b919050565b600073ffffffffffffffffffffffffffffffffffffffff82169050919050565b6000819050919050565b6000612f9982612f51565b9050919050565b6000612fab82612f84565b91506000821415612fbf57612fbe613013565b5b600182039050919050565b6000612fd582612f84565b91507fffffffffffffffffffffffffffffffffffffffffffffffffffffffffffffffff82141561300857613007613013565b5b600182019050919050565b7f4e487b7100000000000000000000000000000000000000000000000000000000600052601160045260246000fd5b7f4e487b7100000000000000000000000000000000000000000000000000000000600052602160045260246000fd5b7f4e487b7100000000000000000000000000000000000000000000000000000000600052603160045260246000fd5b7f4e487b7100000000000000000000000000000000000000000000000000000000600052603260045260246000fd5b600080fd5b7f496e73756666696369656e742062616c616e6365000000000000000000000000600082015250565b7f42616c616e6365206e6f742073756666696369656e7400000000000000000000600082015250565b50565b6002811061313a57613139613042565b5b50565b61314681612f29565b811461315157600080fd5b50565b61315d81612f3b565b811461316857600080fd5b50565b61317481612f47565b811461317f57600080fd5b50565b6002811061318f57600080fd5b50565b61319b81612f84565b81146131a657600080fd5b5056fea264697066735822122001e793d7cdd4b125325e4da7b2c20f86ab3cf69b17b390e5640ac34cb74c81c864736f6c63430008070033",
  "immutableReferences": {},
  "source": "// SPDX-License-Identifier: MIT\r\npragma solidity 0.8.7;\r\npragma experimental ABIEncoderV2;\r\n\r\nimport \"./wallet.sol\";\r\n\r\ncontract Dex is Wallet {\r\n\r\n    using SafeMath for uint256;\r\n\r\n    enum Side {\r\n        BUY,\r\n        SELL\r\n    }\r\n\r\n    struct Order {\r\n        uint id;\r\n        address trader;\r\n        Side side;\r\n        bytes32 ticker;\r\n        uint amount;\r\n        uint price;\r\n        uint filled;\r\n\r\n    }\r\n    uint public nextOrderId =0;\r\n\r\n    mapping(bytes32 => mapping(uint => Order[])) public orderBook;\r\n\r\n    function getOrderBook(bytes32 ticker, Side side) view public returns(Order[] memory){\r\n        return orderBook[ticker][uint(side)];\r\n    }\r\n\r\n    function depositETH() public payable {\r\n        balances[msg.sender][bytes32(\"ETH\")] = balances[msg.sender][bytes32(\"ETH\")].add(msg.value);\r\n\r\n    }\r\n\r\n    function withdrawETH(uint256 amount) external {\r\n        require(balances[msg.sender][\"ETH\"] >= amount, \"Insufficient balance\");\r\n        balances[msg.sender][bytes32(\"ETH\")] = balances[msg.sender][bytes32(\"ETH\")].sub(amount);\r\n        msg.sender.call{value:amount}(\"\");\r\n    }\r\n\r\n   function createLimitOrder(Side side, bytes32 ticker, uint amount, uint price) public{\r\n       if(side == Side.BUY){\r\n           require(balances[msg.sender][\"ETH\"] >= amount.mul(price));\r\n       }\r\n       else if(side == Side.SELL){\r\n               require(balances[msg.sender][ticker] >= amount);\r\n           }\r\n\r\n        Order [] storage orders = orderBook[ticker][uint(side)];\r\n        orders.push(\r\n            Order(nextOrderId, msg.sender, side, ticker, amount, price, 0)\r\n        );\r\n\r\n        //Bubble sort\r\n        uint i = orders.length > 0 ? orders.length -1 : 0;\r\n        /*\r\n        if(orders.length > 0){\r\n            i = orders.length -1;\r\n        }\r\n        else{\r\n            i = 0;\r\n        }\r\n        */\r\n        if(side == Side.BUY){\r\n            while(i>0){\r\n                if(orders[i-1].price > orders[i].price){\r\n                    break;\r\n                }\r\n\r\n            Order memory orderToMove = orders[i-1];\r\n            orders[i-1] = orders[i];\r\n            orders[i] = orderToMove;\r\n            i--;\r\n            }\r\n        }\r\n\r\n\r\n        else if(side == Side.SELL){\r\n            while(i>0){\r\n                if(orders[i-1].price < orders[i].price){\r\n                    break;\r\n                }\r\n\r\n            Order memory orderToMove = orders[i-1];\r\n            orders[i-1] = orders[i];\r\n            orders[i] = orderToMove;\r\n            i--;\r\n          }\r\n        }\r\n        nextOrderId++;\r\n    }\r\n\r\n    function createMarketOrder(Side side, bytes32 ticker, uint amount) public {\r\n        if(side == Side.SELL){\r\n            require(balances[msg.sender][ticker]>= amount, \"Insufficient balance\");\r\n        }\r\n\r\n        uint orderBookSide;\r\n        if(side == Side.BUY){\r\n            orderBookSide = 1;\r\n        }else {\r\n            orderBookSide = 0;\r\n        }\r\n\r\n        Order [] storage orders = orderBook[ticker][orderBookSide];\r\n\r\n        uint totalFilled;\r\n\r\n\r\n        for(uint i = 0; i < orders.length && totalFilled < amount; i++){\r\n            uint leftToFill = amount.sub(totalFilled);\r\n            uint availableToFill = orders[i].amount.sub(orders[i].filled);\r\n            uint filled = 0;\r\n            if(availableToFill > leftToFill){\r\n                filled = leftToFill; // fill the entire market order\r\n            }\r\n            else if (availableToFill < leftToFill) {\r\n                filled = availableToFill; // fill all you can\r\n            }\r\n\r\n            totalFilled = totalFilled.add(filled);\r\n\r\n            orders[i].filled = orders[i].filled.add(filled);\r\n            uint cost = filled.mul(orders[i].price);\r\n\r\n            if(side == Side.BUY){\r\n                require(balances[msg.sender][\"ETH\"]>= cost);\r\n\r\n                balances[msg.sender][ticker] = balances[msg.sender][ticker].add(filled);\r\n                balances[msg.sender][\"ETH\"] = balances[msg.sender][\"ETH\"].sub(cost);\r\n\r\n                balances[orders[i].trader][ticker] = balances[orders[i].trader][ticker].sub(filled);\r\n                balances[orders[i].trader][\"ETH\"] = balances[orders[i].trader][\"ETH\"].add(cost);\r\n            }\r\n\r\n            if(side == Side.SELL){\r\n                balances[msg.sender][\"ETH\"] = balances[msg.sender][\"ETH\"].sub(filled);\r\n                balances[msg.sender][ticker] = balances[msg.sender][ticker].add(cost);\r\n\r\n\r\n                balances[orders[i].trader][\"ETH\"] = balances[orders[i].trader][\"ETH\"].sub(cost);\r\n                balances[orders[i].trader][ticker] = balances[orders[i].trader][ticker].add(filled);\r\n\r\n            }\r\n\r\n        }\r\n\r\n        while(orders.length > 0 && orders[0].amount == orders[0].filled){\r\n            for(uint i = 0; i < orders.length -1; i++){\r\n                orders[i] = orders[i+1];\r\n            }\r\n            orders.pop();\r\n        }\r\n    }\r\n\r\n    function getTokenListLength() public view returns (uint) {\r\n        return tokenList.length;\r\n        \r\n    }\r\n}\r\n",
  "sourcePath": "C:/Users/Riki/Desktop/Solidity/DEX/contracts/dex.sol",
  "compiler": {
    "name": "solc",
    "version": "0.8.7+commit.e28d00a7.Emscripten.clang"
  },
  "schemaVersion": "3.3.4",
  "updatedAt": "2022-01-20T13:48:25.476Z",
  "networkType": "ethereum",
  "devdoc": {
    "kind": "dev",
    "methods": {},
    "version": 1
  },
  "userdoc": {
    "kind": "user",
    "methods": {},
    "version": 1
  }
}